{
  "_format": "hh3-artifact-1",
  "contractName": "AgreementLedger",
  "sourceName": "contracts/AgreementLedger.sol",
  "abi": [
    {
      "inputs": [
        {
          "internalType": "address",
          "name": "_devWallet",
          "type": "address"
        }
      ],
      "stateMutability": "nonpayable",
      "type": "constructor"
    },
    {
      "inputs": [
        {
          "internalType": "address",
          "name": "owner",
          "type": "address"
        }
      ],
      "name": "OwnableInvalidOwner",
      "type": "error"
    },
    {
      "inputs": [
        {
          "internalType": "address",
          "name": "account",
          "type": "address"
        }
      ],
      "name": "OwnableUnauthorizedAccount",
      "type": "error"
    },
    {
      "inputs": [],
      "name": "ReentrancyGuardReentrantCall",
      "type": "error"
    },
    {
      "anonymous": false,
      "inputs": [
        {
          "indexed": true,
          "internalType": "address",
          "name": "partyA",
          "type": "address"
        },
        {
          "indexed": true,
          "internalType": "address",
          "name": "partyB",
          "type": "address"
        },
        {
          "indexed": false,
          "internalType": "uint256",
          "name": "totalFee",
          "type": "uint256"
        },
        {
          "indexed": false,
          "internalType": "uint256",
          "name": "burned",
          "type": "uint256"
        },
        {
          "indexed": false,
          "internalType": "uint256",
          "name": "toDev",
          "type": "uint256"
        },
        {
          "indexed": false,
          "internalType": "bytes32",
          "name": "details",
          "type": "bytes32"
        },
        {
          "indexed": false,
          "internalType": "uint256",
          "name": "timestamp",
          "type": "uint256"
        }
      ],
      "name": "AgreementCreated",
      "type": "event"
    },
    {
      "anonymous": false,
      "inputs": [
        {
          "indexed": true,
          "internalType": "address",
          "name": "owner",
          "type": "address"
        },
        {
          "indexed": true,
          "internalType": "address",
          "name": "spender",
          "type": "address"
        },
        {
          "indexed": false,
          "internalType": "uint256",
          "name": "value",
          "type": "uint256"
        }
      ],
      "name": "Approval",
      "type": "event"
    },
    {
      "anonymous": false,
      "inputs": [
        {
          "indexed": true,
          "internalType": "uint256",
          "name": "escrowId",
          "type": "uint256"
        },
        {
          "indexed": true,
          "internalType": "address",
          "name": "arbiter",
          "type": "address"
        }
      ],
      "name": "ArbiterActivated",
      "type": "event"
    },
    {
      "anonymous": false,
      "inputs": [
        {
          "indexed": true,
          "internalType": "uint256",
          "name": "escrowId",
          "type": "uint256"
        },
        {
          "indexed": true,
          "internalType": "address",
          "name": "approver",
          "type": "address"
        }
      ],
      "name": "ArbiterApproved",
      "type": "event"
    },
    {
      "anonymous": false,
      "inputs": [
        {
          "indexed": true,
          "internalType": "uint256",
          "name": "escrowId",
          "type": "uint256"
        },
        {
          "indexed": true,
          "internalType": "address",
          "name": "proposer",
          "type": "address"
        },
        {
          "indexed": true,
          "internalType": "address",
          "name": "arbiter",
          "type": "address"
        }
      ],
      "name": "ArbiterProposed",
      "type": "event"
    },
    {
      "anonymous": false,
      "inputs": [
        {
          "indexed": true,
          "internalType": "uint256",
          "name": "escrowId",
          "type": "uint256"
        },
        {
          "indexed": false,
          "internalType": "uint256",
          "name": "refundAmount",
          "type": "uint256"
        }
      ],
      "name": "EscrowCancelled",
      "type": "event"
    },
    {
      "anonymous": false,
      "inputs": [
        {
          "indexed": true,
          "internalType": "uint256",
          "name": "escrowId",
          "type": "uint256"
        },
        {
          "indexed": true,
          "internalType": "address",
          "name": "confirmer",
          "type": "address"
        },
        {
          "indexed": false,
          "internalType": "bool",
          "name": "isInitiator",
          "type": "bool"
        }
      ],
      "name": "EscrowConfirmed",
      "type": "event"
    },
    {
      "anonymous": false,
      "inputs": [
        {
          "indexed": true,
          "internalType": "uint256",
          "name": "escrowId",
          "type": "uint256"
        },
        {
          "indexed": true,
          "internalType": "uint256",
          "name": "agreementId",
          "type": "uint256"
        },
        {
          "indexed": true,
          "internalType": "address",
          "name": "initiator",
          "type": "address"
        },
        {
          "indexed": false,
          "internalType": "uint256",
          "name": "ethAmount",
          "type": "uint256"
        },
        {
          "indexed": false,
          "internalType": "bytes32",
          "name": "valueHash",
          "type": "bytes32"
        },
        {
          "indexed": false,
          "internalType": "enum AgreementLedger.DeliverableType",
          "name": "deliverableType",
          "type": "uint8"
        },
        {
          "indexed": false,
          "internalType": "uint256",
          "name": "expiresAt",
          "type": "uint256"
        }
      ],
      "name": "EscrowCreated",
      "type": "event"
    },
    {
      "anonymous": false,
      "inputs": [
        {
          "indexed": true,
          "internalType": "uint256",
          "name": "escrowId",
          "type": "uint256"
        },
        {
          "indexed": true,
          "internalType": "address",
          "name": "disputer",
          "type": "address"
        }
      ],
      "name": "EscrowDisputed",
      "type": "event"
    },
    {
      "anonymous": false,
      "inputs": [
        {
          "indexed": true,
          "internalType": "uint256",
          "name": "escrowId",
          "type": "uint256"
        },
        {
          "indexed": true,
          "internalType": "address",
          "name": "participant",
          "type": "address"
        }
      ],
      "name": "EscrowJoined",
      "type": "event"
    },
    {
      "anonymous": false,
      "inputs": [
        {
          "indexed": true,
          "internalType": "uint256",
          "name": "escrowId",
          "type": "uint256"
        },
        {
          "indexed": true,
          "internalType": "address",
          "name": "recipient",
          "type": "address"
        },
        {
          "indexed": false,
          "internalType": "uint256",
          "name": "amount",
          "type": "uint256"
        }
      ],
      "name": "EscrowReleased",
      "type": "event"
    },
    {
      "anonymous": false,
      "inputs": [
        {
          "indexed": true,
          "internalType": "uint256",
          "name": "escrowId",
          "type": "uint256"
        },
        {
          "indexed": true,
          "internalType": "address",
          "name": "recipient",
          "type": "address"
        },
        {
          "indexed": false,
          "internalType": "uint256",
          "name": "amount",
          "type": "uint256"
        },
        {
          "indexed": false,
          "internalType": "string",
          "name": "decision",
          "type": "string"
        }
      ],
      "name": "EscrowResolved",
      "type": "event"
    },
    {
      "anonymous": false,
      "inputs": [
        {
          "indexed": true,
          "internalType": "address",
          "name": "oracle",
          "type": "address"
        },
        {
          "indexed": false,
          "internalType": "bool",
          "name": "authorized",
          "type": "bool"
        }
      ],
      "name": "OracleAuthorized",
      "type": "event"
    },
    {
      "anonymous": false,
      "inputs": [
        {
          "indexed": true,
          "internalType": "uint256",
          "name": "escrowId",
          "type": "uint256"
        },
        {
          "indexed": true,
          "internalType": "address",
          "name": "oracle",
          "type": "address"
        },
        {
          "indexed": false,
          "internalType": "bool",
          "name": "verified",
          "type": "bool"
        },
        {
          "indexed": false,
          "internalType": "bytes32",
          "name": "proofHash",
          "type": "bytes32"
        }
      ],
      "name": "OracleVerificationSubmitted",
      "type": "event"
    },
    {
      "anonymous": false,
      "inputs": [
        {
          "indexed": true,
          "internalType": "address",
          "name": "previousOwner",
          "type": "address"
        },
        {
          "indexed": true,
          "internalType": "address",
          "name": "newOwner",
          "type": "address"
        }
      ],
      "name": "OwnershipTransferred",
      "type": "event"
    },
    {
      "anonymous": false,
      "inputs": [
        {
          "indexed": true,
          "internalType": "uint256",
          "name": "escrowId",
          "type": "uint256"
        },
        {
          "indexed": true,
          "internalType": "address",
          "name": "submitter",
          "type": "address"
        },
        {
          "indexed": false,
          "internalType": "bytes32",
          "name": "proofHash",
          "type": "bytes32"
        },
        {
          "indexed": false,
          "internalType": "bool",
          "name": "isInitiator",
          "type": "bool"
        }
      ],
      "name": "ProofSubmitted",
      "type": "event"
    },
    {
      "anonymous": false,
      "inputs": [
        {
          "indexed": true,
          "internalType": "address",
          "name": "user",
          "type": "address"
        },
        {
          "indexed": false,
          "internalType": "uint256",
          "name": "reward",
          "type": "uint256"
        }
      ],
      "name": "Registered",
      "type": "event"
    },
    {
      "anonymous": false,
      "inputs": [
        {
          "indexed": true,
          "internalType": "address",
          "name": "reporter",
          "type": "address"
        },
        {
          "indexed": true,
          "internalType": "address",
          "name": "reportedParty",
          "type": "address"
        },
        {
          "indexed": false,
          "internalType": "uint256",
          "name": "agreementId",
          "type": "uint256"
        },
        {
          "indexed": false,
          "internalType": "bytes32",
          "name": "reason",
          "type": "bytes32"
        },
        {
          "indexed": false,
          "internalType": "uint256",
          "name": "timestamp",
          "type": "uint256"
        }
      ],
      "name": "ReportCreated",
      "type": "event"
    },
    {
      "anonymous": false,
      "inputs": [
        {
          "indexed": true,
          "internalType": "address",
          "name": "from",
          "type": "address"
        },
        {
          "indexed": true,
          "internalType": "address",
          "name": "to",
          "type": "address"
        },
        {
          "indexed": false,
          "internalType": "uint256",
          "name": "value",
          "type": "uint256"
        }
      ],
      "name": "Transfer",
      "type": "event"
    },
    {
      "inputs": [],
      "name": "ARBITER_FEE_PERCENT",
      "outputs": [
        {
          "internalType": "uint256",
          "name": "",
          "type": "uint256"
        }
      ],
      "stateMutability": "view",
      "type": "function"
    },
    {
      "inputs": [],
      "name": "BURN_PERCENT",
      "outputs": [
        {
          "internalType": "uint256",
          "name": "",
          "type": "uint256"
        }
      ],
      "stateMutability": "view",
      "type": "function"
    },
    {
      "inputs": [],
      "name": "ESCROW_FEE_PERCENT",
      "outputs": [
        {
          "internalType": "uint256",
          "name": "",
          "type": "uint256"
        }
      ],
      "stateMutability": "view",
      "type": "function"
    },
    {
      "inputs": [],
      "name": "VERIFY_FEE",
      "outputs": [
        {
          "internalType": "uint256",
          "name": "",
          "type": "uint256"
        }
      ],
      "stateMutability": "view",
      "type": "function"
    },
    {
      "inputs": [
        {
          "internalType": "uint256",
          "name": "",
          "type": "uint256"
        }
      ],
      "name": "agreements",
      "outputs": [
        {
          "internalType": "address",
          "name": "partyA",
          "type": "address"
        },
        {
          "internalType": "address",
          "name": "partyB",
          "type": "address"
        },
        {
          "internalType": "bytes32",
          "name": "details",
          "type": "bytes32"
        },
        {
          "internalType": "uint256",
          "name": "timestamp",
          "type": "uint256"
        }
      ],
      "stateMutability": "view",
      "type": "function"
    },
    {
      "inputs": [
        {
          "internalType": "address",
          "name": "",
          "type": "address"
        },
        {
          "internalType": "address",
          "name": "",
          "type": "address"
        }
      ],
      "name": "allowance",
      "outputs": [
        {
          "internalType": "uint256",
          "name": "",
          "type": "uint256"
        }
      ],
      "stateMutability": "view",
      "type": "function"
    },
    {
      "inputs": [
        {
          "internalType": "address",
          "name": "spender",
          "type": "address"
        },
        {
          "internalType": "uint256",
          "name": "value",
          "type": "uint256"
        }
      ],
      "name": "approve",
      "outputs": [
        {
          "internalType": "bool",
          "name": "",
          "type": "bool"
        }
      ],
      "stateMutability": "nonpayable",
      "type": "function"
    },
    {
      "inputs": [
        {
          "internalType": "uint256",
          "name": "escrowId",
          "type": "uint256"
        }
      ],
      "name": "approveArbiter",
      "outputs": [],
      "stateMutability": "nonpayable",
      "type": "function"
    },
    {
      "inputs": [
        {
          "internalType": "address",
          "name": "oracle",
          "type": "address"
        },
        {
          "internalType": "bool",
          "name": "authorized",
          "type": "bool"
        }
      ],
      "name": "authorizeOracle",
      "outputs": [],
      "stateMutability": "nonpayable",
      "type": "function"
    },
    {
      "inputs": [
        {
          "internalType": "address",
          "name": "",
          "type": "address"
        }
      ],
      "name": "authorizedOracles",
      "outputs": [
        {
          "internalType": "bool",
          "name": "",
          "type": "bool"
        }
      ],
      "stateMutability": "view",
      "type": "function"
    },
    {
      "inputs": [
        {
          "internalType": "address",
          "name": "",
          "type": "address"
        }
      ],
      "name": "balanceOf",
      "outputs": [
        {
          "internalType": "uint256",
          "name": "",
          "type": "uint256"
        }
      ],
      "stateMutability": "view",
      "type": "function"
    },
    {
      "inputs": [
        {
          "internalType": "uint256",
          "name": "escrowId",
          "type": "uint256"
        }
      ],
      "name": "cancelEscrow",
      "outputs": [],
      "stateMutability": "nonpayable",
      "type": "function"
    },
    {
      "inputs": [
        {
          "internalType": "uint256",
          "name": "escrowId",
          "type": "uint256"
        }
      ],
      "name": "confirmCompletion",
      "outputs": [],
      "stateMutability": "nonpayable",
      "type": "function"
    },
    {
      "inputs": [
        {
          "internalType": "address",
          "name": "partyA",
          "type": "address"
        },
        {
          "internalType": "address",
          "name": "partyB",
          "type": "address"
        },
        {
          "internalType": "bytes32",
          "name": "detailsHash",
          "type": "bytes32"
        }
      ],
      "name": "createAgreement",
      "outputs": [],
      "stateMutability": "nonpayable",
      "type": "function"
    },
    {
      "inputs": [
        {
          "internalType": "uint256",
          "name": "agreementId",
          "type": "uint256"
        },
        {
          "internalType": "bytes32",
          "name": "valueHash",
          "type": "bytes32"
        },
        {
          "internalType": "enum AgreementLedger.DeliverableType",
          "name": "deliverableType",
          "type": "uint8"
        },
        {
          "internalType": "uint256",
          "name": "expirationDays",
          "type": "uint256"
        }
      ],
      "name": "createEscrow",
      "outputs": [],
      "stateMutability": "payable",
      "type": "function"
    },
    {
      "inputs": [],
      "name": "decimals",
      "outputs": [
        {
          "internalType": "uint8",
          "name": "",
          "type": "uint8"
        }
      ],
      "stateMutability": "view",
      "type": "function"
    },
    {
      "inputs": [],
      "name": "devWallet",
      "outputs": [
        {
          "internalType": "address",
          "name": "",
          "type": "address"
        }
      ],
      "stateMutability": "view",
      "type": "function"
    },
    {
      "inputs": [],
      "name": "escrowCount",
      "outputs": [
        {
          "internalType": "uint256",
          "name": "",
          "type": "uint256"
        }
      ],
      "stateMutability": "view",
      "type": "function"
    },
    {
      "inputs": [
        {
          "internalType": "uint256",
          "name": "",
          "type": "uint256"
        }
      ],
      "name": "escrows",
      "outputs": [
        {
          "internalType": "uint256",
          "name": "agreementId",
          "type": "uint256"
        },
        {
          "internalType": "address",
          "name": "initiator",
          "type": "address"
        },
        {
          "internalType": "address",
          "name": "participant",
          "type": "address"
        },
        {
          "internalType": "uint256",
          "name": "ethAmount",
          "type": "uint256"
        },
        {
          "internalType": "bytes32",
          "name": "valueHash",
          "type": "bytes32"
        },
        {
          "internalType": "bytes32",
          "name": "proofHash",
          "type": "bytes32"
        },
        {
          "internalType": "enum AgreementLedger.DeliverableType",
          "name": "deliverableType",
          "type": "uint8"
        },
        {
          "internalType": "bool",
          "name": "initiatorConfirmed",
          "type": "bool"
        },
        {
          "internalType": "bool",
          "name": "participantConfirmed",
          "type": "bool"
        },
        {
          "internalType": "bool",
          "name": "initiatorProofSubmitted",
          "type": "bool"
        },
        {
          "internalType": "bool",
          "name": "participantProofSubmitted",
          "type": "bool"
        },
        {
          "internalType": "bool",
          "name": "disputed",
          "type": "bool"
        },
        {
          "internalType": "address",
          "name": "proposedArbiter",
          "type": "address"
        },
        {
          "internalType": "bool",
          "name": "initiatorApprovedArbiter",
          "type": "bool"
        },
        {
          "internalType": "bool",
          "name": "participantApprovedArbiter",
          "type": "bool"
        },
        {
          "internalType": "address",
          "name": "activeArbiter",
          "type": "address"
        },
        {
          "internalType": "uint256",
          "name": "createdAt",
          "type": "uint256"
        },
        {
          "internalType": "uint256",
          "name": "expiresAt",
          "type": "uint256"
        },
        {
          "internalType": "enum AgreementLedger.EscrowStatus",
          "name": "status",
          "type": "uint8"
        }
      ],
      "stateMutability": "view",
      "type": "function"
    },
    {
      "inputs": [],
      "name": "getAgreements",
      "outputs": [
        {
          "components": [
            {
              "internalType": "address",
              "name": "partyA",
              "type": "address"
            },
            {
              "internalType": "address",
              "name": "partyB",
              "type": "address"
            },
            {
              "internalType": "bytes32",
              "name": "details",
              "type": "bytes32"
            },
            {
              "internalType": "uint256",
              "name": "timestamp",
              "type": "uint256"
            }
          ],
          "internalType": "struct AgreementLedger.Agreement[]",
          "name": "",
          "type": "tuple[]"
        }
      ],
      "stateMutability": "view",
      "type": "function"
    },
    {
      "inputs": [
        {
          "internalType": "address",
          "name": "party",
          "type": "address"
        }
      ],
      "name": "getAgreementsByParty",
      "outputs": [
        {
          "components": [
            {
              "internalType": "address",
              "name": "partyA",
              "type": "address"
            },
            {
              "internalType": "address",
              "name": "partyB",
              "type": "address"
            },
            {
              "internalType": "bytes32",
              "name": "details",
              "type": "bytes32"
            },
            {
              "internalType": "uint256",
              "name": "timestamp",
              "type": "uint256"
            }
          ],
          "internalType": "struct AgreementLedger.Agreement[]",
          "name": "",
          "type": "tuple[]"
        }
      ],
      "stateMutability": "view",
      "type": "function"
    },
    {
      "inputs": [
        {
          "internalType": "uint256",
          "name": "escrowId",
          "type": "uint256"
        }
      ],
      "name": "getEscrow",
      "outputs": [
        {
          "components": [
            {
              "internalType": "uint256",
              "name": "agreementId",
              "type": "uint256"
            },
            {
              "internalType": "address",
              "name": "initiator",
              "type": "address"
            },
            {
              "internalType": "address",
              "name": "participant",
              "type": "address"
            },
            {
              "internalType": "uint256",
              "name": "ethAmount",
              "type": "uint256"
            },
            {
              "internalType": "bytes32",
              "name": "valueHash",
              "type": "bytes32"
            },
            {
              "internalType": "bytes32",
              "name": "proofHash",
              "type": "bytes32"
            },
            {
              "internalType": "enum AgreementLedger.DeliverableType",
              "name": "deliverableType",
              "type": "uint8"
            },
            {
              "internalType": "bool",
              "name": "initiatorConfirmed",
              "type": "bool"
            },
            {
              "internalType": "bool",
              "name": "participantConfirmed",
              "type": "bool"
            },
            {
              "internalType": "bool",
              "name": "initiatorProofSubmitted",
              "type": "bool"
            },
            {
              "internalType": "bool",
              "name": "participantProofSubmitted",
              "type": "bool"
            },
            {
              "internalType": "bool",
              "name": "disputed",
              "type": "bool"
            },
            {
              "internalType": "address",
              "name": "proposedArbiter",
              "type": "address"
            },
            {
              "internalType": "bool",
              "name": "initiatorApprovedArbiter",
              "type": "bool"
            },
            {
              "internalType": "bool",
              "name": "participantApprovedArbiter",
              "type": "bool"
            },
            {
              "internalType": "address",
              "name": "activeArbiter",
              "type": "address"
            },
            {
              "internalType": "uint256",
              "name": "createdAt",
              "type": "uint256"
            },
            {
              "internalType": "uint256",
              "name": "expiresAt",
              "type": "uint256"
            },
            {
              "internalType": "enum AgreementLedger.EscrowStatus",
              "name": "status",
              "type": "uint8"
            }
          ],
          "internalType": "struct AgreementLedger.EscrowData",
          "name": "",
          "type": "tuple"
        }
      ],
      "stateMutability": "view",
      "type": "function"
    },
    {
      "inputs": [
        {
          "internalType": "address",
          "name": "user",
          "type": "address"
        }
      ],
      "name": "getEscrowsByUser",
      "outputs": [
        {
          "internalType": "uint256[]",
          "name": "",
          "type": "uint256[]"
        }
      ],
      "stateMutability": "view",
      "type": "function"
    },
    {
      "inputs": [
        {
          "internalType": "uint256",
          "name": "agreementId",
          "type": "uint256"
        }
      ],
      "name": "getEscrowsForAgreement",
      "outputs": [
        {
          "internalType": "uint256[]",
          "name": "",
          "type": "uint256[]"
        }
      ],
      "stateMutability": "view",
      "type": "function"
    },
    {
      "inputs": [
        {
          "internalType": "uint256",
          "name": "escrowId",
          "type": "uint256"
        }
      ],
      "name": "getOracleVerification",
      "outputs": [
        {
          "internalType": "bool",
          "name": "verified",
          "type": "bool"
        },
        {
          "internalType": "bytes32",
          "name": "verificationHash",
          "type": "bytes32"
        },
        {
          "internalType": "uint256",
          "name": "verifiedAt",
          "type": "uint256"
        }
      ],
      "stateMutability": "view",
      "type": "function"
    },
    {
      "inputs": [
        {
          "internalType": "address",
          "name": "party",
          "type": "address"
        }
      ],
      "name": "getReportsAgainstParty",
      "outputs": [
        {
          "components": [
            {
              "internalType": "address",
              "name": "reporter",
              "type": "address"
            },
            {
              "internalType": "address",
              "name": "reportedParty",
              "type": "address"
            },
            {
              "internalType": "uint256",
              "name": "agreementId",
              "type": "uint256"
            },
            {
              "internalType": "bytes32",
              "name": "reason",
              "type": "bytes32"
            },
            {
              "internalType": "uint256",
              "name": "timestamp",
              "type": "uint256"
            }
          ],
          "internalType": "struct AgreementLedger.Report[]",
          "name": "",
          "type": "tuple[]"
        }
      ],
      "stateMutability": "view",
      "type": "function"
    },
    {
      "inputs": [
        {
          "internalType": "address",
          "name": "reporter",
          "type": "address"
        }
      ],
      "name": "getReportsByReporter",
      "outputs": [
        {
          "components": [
            {
              "internalType": "address",
              "name": "reporter",
              "type": "address"
            },
            {
              "internalType": "address",
              "name": "reportedParty",
              "type": "address"
            },
            {
              "internalType": "uint256",
              "name": "agreementId",
              "type": "uint256"
            },
            {
              "internalType": "bytes32",
              "name": "reason",
              "type": "bytes32"
            },
            {
              "internalType": "uint256",
              "name": "timestamp",
              "type": "uint256"
            }
          ],
          "internalType": "struct AgreementLedger.Report[]",
          "name": "",
          "type": "tuple[]"
        }
      ],
      "stateMutability": "view",
      "type": "function"
    },
    {
      "inputs": [
        {
          "internalType": "uint256",
          "name": "escrowId",
          "type": "uint256"
        }
      ],
      "name": "handleExpiredEscrow",
      "outputs": [],
      "stateMutability": "nonpayable",
      "type": "function"
    },
    {
      "inputs": [
        {
          "internalType": "uint256",
          "name": "escrowId",
          "type": "uint256"
        }
      ],
      "name": "isEscrowExpired",
      "outputs": [
        {
          "internalType": "bool",
          "name": "",
          "type": "bool"
        }
      ],
      "stateMutability": "view",
      "type": "function"
    },
    {
      "inputs": [
        {
          "internalType": "uint256",
          "name": "escrowId",
          "type": "uint256"
        }
      ],
      "name": "joinEscrow",
      "outputs": [],
      "stateMutability": "nonpayable",
      "type": "function"
    },
    {
      "inputs": [],
      "name": "name",
      "outputs": [
        {
          "internalType": "string",
          "name": "",
          "type": "string"
        }
      ],
      "stateMutability": "view",
      "type": "function"
    },
    {
      "inputs": [
        {
          "internalType": "uint256",
          "name": "",
          "type": "uint256"
        }
      ],
      "name": "oracleVerificationHash",
      "outputs": [
        {
          "internalType": "bytes32",
          "name": "",
          "type": "bytes32"
        }
      ],
      "stateMutability": "view",
      "type": "function"
    },
    {
      "inputs": [
        {
          "internalType": "uint256",
          "name": "",
          "type": "uint256"
        }
      ],
      "name": "oracleVerified",
      "outputs": [
        {
          "internalType": "bool",
          "name": "",
          "type": "bool"
        }
      ],
      "stateMutability": "view",
      "type": "function"
    },
    {
      "inputs": [
        {
          "internalType": "uint256",
          "name": "",
          "type": "uint256"
        }
      ],
      "name": "oracleVerifiedAt",
      "outputs": [
        {
          "internalType": "uint256",
          "name": "",
          "type": "uint256"
        }
      ],
      "stateMutability": "view",
      "type": "function"
    },
    {
      "inputs": [],
      "name": "owner",
      "outputs": [
        {
          "internalType": "address",
          "name": "",
          "type": "address"
        }
      ],
      "stateMutability": "view",
      "type": "function"
    },
    {
      "inputs": [
        {
          "internalType": "uint256",
          "name": "escrowId",
          "type": "uint256"
        },
        {
          "internalType": "address",
          "name": "arbiterAddress",
          "type": "address"
        }
      ],
      "name": "proposeArbiter",
      "outputs": [],
      "stateMutability": "nonpayable",
      "type": "function"
    },
    {
      "inputs": [
        {
          "internalType": "uint256",
          "name": "escrowId",
          "type": "uint256"
        }
      ],
      "name": "raiseDispute",
      "outputs": [],
      "stateMutability": "nonpayable",
      "type": "function"
    },
    {
      "inputs": [
        {
          "internalType": "address",
          "name": "user",
          "type": "address"
        }
      ],
      "name": "registerUser",
      "outputs": [],
      "stateMutability": "nonpayable",
      "type": "function"
    },
    {
      "inputs": [
        {
          "internalType": "address",
          "name": "",
          "type": "address"
        }
      ],
      "name": "registered",
      "outputs": [
        {
          "internalType": "bool",
          "name": "",
          "type": "bool"
        }
      ],
      "stateMutability": "view",
      "type": "function"
    },
    {
      "inputs": [],
      "name": "renounceOwnership",
      "outputs": [],
      "stateMutability": "nonpayable",
      "type": "function"
    },
    {
      "inputs": [
        {
          "internalType": "uint256",
          "name": "agreementId",
          "type": "uint256"
        },
        {
          "internalType": "address",
          "name": "reporterParty",
          "type": "address"
        },
        {
          "internalType": "address",
          "name": "reportedParty",
          "type": "address"
        },
        {
          "internalType": "bytes32",
          "name": "reason",
          "type": "bytes32"
        }
      ],
      "name": "reportIssue",
      "outputs": [],
      "stateMutability": "nonpayable",
      "type": "function"
    },
    {
      "inputs": [
        {
          "internalType": "uint256",
          "name": "",
          "type": "uint256"
        }
      ],
      "name": "reports",
      "outputs": [
        {
          "internalType": "address",
          "name": "reporter",
          "type": "address"
        },
        {
          "internalType": "address",
          "name": "reportedParty",
          "type": "address"
        },
        {
          "internalType": "uint256",
          "name": "agreementId",
          "type": "uint256"
        },
        {
          "internalType": "bytes32",
          "name": "reason",
          "type": "bytes32"
        },
        {
          "internalType": "uint256",
          "name": "timestamp",
          "type": "uint256"
        }
      ],
      "stateMutability": "view",
      "type": "function"
    },
    {
      "inputs": [
        {
          "internalType": "uint256",
          "name": "escrowId",
          "type": "uint256"
        },
        {
          "internalType": "string",
          "name": "decision",
          "type": "string"
        }
      ],
      "name": "resolveDispute",
      "outputs": [],
      "stateMutability": "nonpayable",
      "type": "function"
    },
    {
      "inputs": [
        {
          "internalType": "address",
          "name": "_new",
          "type": "address"
        }
      ],
      "name": "setDevWallet",
      "outputs": [],
      "stateMutability": "nonpayable",
      "type": "function"
    },
    {
      "inputs": [
        {
          "internalType": "uint256",
          "name": "escrowId",
          "type": "uint256"
        },
        {
          "internalType": "bool",
          "name": "verified",
          "type": "bool"
        },
        {
          "internalType": "bytes32",
          "name": "proofHash",
          "type": "bytes32"
        }
      ],
      "name": "submitOracleVerification",
      "outputs": [],
      "stateMutability": "nonpayable",
      "type": "function"
    },
    {
      "inputs": [
        {
          "internalType": "uint256",
          "name": "escrowId",
          "type": "uint256"
        },
        {
          "internalType": "bytes32",
          "name": "proofHash",
          "type": "bytes32"
        }
      ],
      "name": "submitProof",
      "outputs": [],
      "stateMutability": "nonpayable",
      "type": "function"
    },
    {
      "inputs": [],
      "name": "symbol",
      "outputs": [
        {
          "internalType": "string",
          "name": "",
          "type": "string"
        }
      ],
      "stateMutability": "view",
      "type": "function"
    },
    {
      "inputs": [],
      "name": "totalSupply",
      "outputs": [
        {
          "internalType": "uint256",
          "name": "",
          "type": "uint256"
        }
      ],
      "stateMutability": "view",
      "type": "function"
    },
    {
      "inputs": [
        {
          "internalType": "address",
          "name": "to",
          "type": "address"
        },
        {
          "internalType": "uint256",
          "name": "value",
          "type": "uint256"
        }
      ],
      "name": "transfer",
      "outputs": [
        {
          "internalType": "bool",
          "name": "",
          "type": "bool"
        }
      ],
      "stateMutability": "nonpayable",
      "type": "function"
    },
    {
      "inputs": [
        {
          "internalType": "address",
          "name": "from",
          "type": "address"
        },
        {
          "internalType": "address",
          "name": "to",
          "type": "address"
        },
        {
          "internalType": "uint256",
          "name": "value",
          "type": "uint256"
        }
      ],
      "name": "transferFrom",
      "outputs": [
        {
          "internalType": "bool",
          "name": "",
          "type": "bool"
        }
      ],
      "stateMutability": "nonpayable",
      "type": "function"
    },
    {
      "inputs": [
        {
          "internalType": "address",
          "name": "newOwner",
          "type": "address"
        }
      ],
      "name": "transferOwnership",
      "outputs": [],
      "stateMutability": "nonpayable",
      "type": "function"
    }
  ],
  "bytecode": "0x6080346200013157601f62003dae38819003918201601f19168301916001600160401b0383118484101762000135578084926020946040528339810103126200013157516001600160a01b0390818116908190036200013157331562000119575f8054336001600160a01b03198083168217845592949091167f8be0079c531659141344cd1fd0a4f28419497f9722a3daafe3b4186f6b6457e08580a3600180556005541617600555620000b560025462000149565b600255338152600360205260408120620000d0815462000149565b90556040519069d3c21bcecceda100000082527fddf252ad1be2c89b69c2b068fc378daa952ba7f163c4a11628f55a4df523b3ef60203393a3604051613c389081620001768239f35b604051631e4fbdf760e01b81525f6004820152602490fd5b5f80fd5b634e487b7160e01b5f52604160045260245ffd5b9069d3c21bcecceda100000082018092116200016157565b634e487b7160e01b5f52601160045260245ffdfe60a0806040526004361015610012575f80fd5b5f3560e01c908163012f52ee146130405750806306fdde0314612ffd5780630939382714612e45578063095ea7b314612dd05780630c2c69fa14612d0957806318160ddd14612cec5780631f53ac0214612ca95780632199d5cd14612b54578063222b2a72146128ea57806323b872dd146128375780632f19c56a146126da57806330aa325b146126b0578063313ce567146126955780634b7fa85d146125c257806358d746201461241f5780635968871214611f8657806361c992a314611f49578063675ac67a14611f2c5780636cc1d18f14611bd757806370a0823114611b9f578063715018a614611b4857806378fa782614611ae35780637bb5b08d14611a7a5780637d19e5961461179b5780638da5cb5b146117745780638ea5220f1461174c57806394aeb613146114ee57806395d89b41146114b35780639bb4ea1a146114775780639c9867641461145c5780639dca7724146111d85780639e1422ec146111bd5780639f8c6cc714611099578063a5c1674e14610f8a578063a75464fb14610f2f578063a781ee1e14610f00578063a9059cbb14610ecf578063b2dd5c0714610e92578063b492177414610dfc578063bad3366414610dd2578063bd14de9614610d72578063c942adf714610d09578063cf51b45d14610842578063cf7e9242146107b5578063dbe14ae414610553578063dd62ed3e14610506578063ddbdb8d5146104eb578063e01824361461037b578063f1d9d218146102f8578063f2fde38b146102735763ff60bee81461024d575f80fd5b3461026f575f36600319011261026f576020604051678ac7230489e800008152f35b5f80fd5b3461026f57602036600319011261026f5761028c613274565b61029461344c565b6001600160a01b039081169081156102e0575f54826001600160601b0360a01b8216175f55167f8be0079c531659141344cd1fd0a4f28419497f9722a3daafe3b4186f6b6457e05f80a3005b604051631e4fbdf760e01b81525f6004820152602490fd5b3461026f5760208060031936011261026f576001600160a01b0361031a613274565b165f52600e815260405f209060405190818184549182815201935f52815f20915f905b82821061036457610360856103548189038261320b565b60405191829182613319565b0390f35b83548652948501946001938401939091019061033d565b3461026f57602036600319011261026f57600435610397613b9f565b6103a4600d5482106138ed565b5f818152600c6020526040902060018101546001600160a01b031690338290036104a657600a81019081549160ff83166103dd8161317c565b61046157600460039360ff19161790550190815491821590811561042e575b847fdc48a08bb890bd1b8e4261212a97a5e711e80830d96ba56b362f3ac5f427d51e602086604051908152a260018055005b5f8481948294838095558390610458575bf11561044d578280806103fc565b6040513d5f823e3d90fd5b506108fc61043f565b60405162461bcd60e51b815260206004820152601e60248201527f43616e206f6e6c792063616e63656c2070656e64696e6720657363726f7700006044820152606490fd5b60405162461bcd60e51b815260206004820152601960248201527f4f6e6c7920696e69746961746f722063616e2063616e63656c000000000000006044820152606490fd5b3461026f575f36600319011261026f57602060405160018152f35b3461026f57604036600319011261026f5761051f613274565b61052761328a565b9060018060a01b038091165f52600460205260405f2091165f52602052602060405f2054604051908152f35b3461026f57604036600319011261026f5760043561056f61328a565b9061057d600d5482106138ed565b805f52600c60205260405f209160068301805461059f60ff8260281c16613a7c565b600785019260018060a01b03916105b98386541615613abe565b6001870191838354169788331480156107a6575b6105d6906139ae565b84808316998a14159182610795575b50501561075e578715610719578188856106309460301c1603610709575b5084546601000000000000600160d01b03191660309190911b6601000000000000600160d01b0316178455565b541633145f146106f357805460ff60d01b1916600160d01b1781555b8333847fcc3129fa03ea4cdbc2f9526713a06bb8e592a300114a4c07275016c7ed525aed5f80a433837fd98cadec9d2098dcc52aa7338b6287fdfbcb4dc9560d8dd34c278bcf0d56211e5f80a35460ff8160d01c1690816106e5575b506106af57005b80546001600160a01b031916831790557f20b93fa4c7553a54f03d84e5f6e2836825011aa33759266fff710ae4883c66755f80a3005b60ff915060d81c16846106a8565b805460ff60d81b1916600160d81b17815561064c565b61ffff60d01b1916855588610603565b60405162461bcd60e51b815260206004820152601760248201527f496e76616c6964206172626974657220616464726573730000000000000000006044820152606490fd5b60405162461bcd60e51b815260206004820152600f60248201526e24b73b30b634b21030b93134ba32b960891b6044820152606490fd5b60020154168914159050848a6105e5565b506002810154851633146105cd565b3461026f575f36600319011261026f576008546107d18161377a565b6107de604051918261320b565b81815260209182820160085f527ff3f7a9fe364faab93b216da50a3214154f22a0a2b415b23a84c8169e8b636ee3935f915b838310610825576040518061036087826132af565b60048260019261083489613792565b815201960192019194610810565b3461026f57604036600319011261026f5767ffffffffffffffff600435602480359083821161026f573660238301121561026f57816004013593841161026f57808201918185369201011161026f57610899613b9f565b6108a6600d5484106138ed565b825f52602090600c825260405f209260ff600685015460281c1615610cd65760078401546001600160a01b0394908516928315610c9f57833303610c5c57600a820160028154610904600360ff83166108fe8161317c565b14613b42565b60ff19161790556003820154801580610c28578180046001141715610c14575f80808361093660648396048092613520565b98828215610c0b575bf11561044d5760405161095b601f8a01601f191687018261320b565b88815285810190898583375f878b830101525190206672656c6561736560c81b86604051610988816131ef565b6007815201527f585a6dc6f7e8656767705fa1b809ec2c27086762f615cdddb3cd21888983b3e38103610a11575050600201905f8080808689875416828215610a08575bf11561044d575f80516020613bc3833981519152946109fe925416966040805195869586528501526040840191613b7f565b0390a35b60018055005b506108fc6109cc565b651c99599d5b9960d21b86604051610a28816131ef565b6006815201527f4fd967966e6b0ea40f78dff297fed3b472763137dac6cf564d7263e918f425ef8103610aaf575050600101905f8080808689875416828215610aa6575bf11561044d575f80516020613bc383398151915294610a9e925416966040805195869586528501526040840191613b7f565b0390a3610a02565b506108fc610a6c565b90925084939750641cdc1b1a5d60da1b7fb4848b10f16d29a1fc9dc44de4931360e9627b85b65e94810389d8088709a6a0929695604051610aef816131ef565b60058152015203610bd557508460011c9260018101905f8080808888875416828215610bcc575bf11561044d57600201905f80808087865416610b328a8d613520565b90828215610bc3575bf11561044d57608094846040938796610b939454168986518581528789820152600f888201526e39b83634ba16b4b734ba34b0ba37b960891b60608201525f80516020613bc38339815191529a8b91a3541697613520565b91815192835282015260116040820152701cdc1b1a5d0b5c185c9d1a58da5c185b9d607a1b6060820152a3610a02565b506108fc610b3b565b506108fc610b16565b9060106064926040519262461bcd60e51b845260048401528201526f24b73b30b634b2103232b1b4b9b4b7b760811b6044820152fd5b506108fc61093f565b50634e487b7160e01b5f9081526011600452fd5b505050505f80516020613bc383398151915293506040929150610a9e905f9684519485948986528501526040840191613b7f565b8460186064926040519262461bcd60e51b845260048401528201527f4f6e6c7920617262697465722063616e207265736f6c766500000000000000006044820152fd5b8460116064926040519262461bcd60e51b845260048401528201527027379030b1ba34bb329030b93134ba32b960791b6044820152fd5b60405162461bcd60e51b815260048101849052600c818401526b139bdd08191a5cdc1d5d195960a21b6044820152606490fd5b3461026f57602036600319011261026f5760043560095481101561026f57610d3260a091613413565b50600180831b0390818154169160018201541690600281015460046003830154920154926040519485526020850152604084015260608301526080820152f35b3461026f57602036600319011261026f5760043560085481101561026f57610d9b6080916133c7565b5060018060a01b03908181541691600182015416906003600282015491015491604051938452602084015260408301526060820152f35b3461026f57602036600319011261026f576004355f526013602052602060405f2054604051908152f35b3461026f57602036600319011261026f576001600160a01b03610e1d613274565b165f52600a60205260405f208054610e34816137f2565b915f5b828110610e4c57604051806103608682613353565b80610e72610e6c610e60610e8d9486613543565b90549060031b1c613413565b50613860565b610e7c82876137de565b52610e8781866137de565b506137d0565b610e37565b3461026f57602036600319011261026f576001600160a01b03610eb3613274565b165f526006602052602060ff60405f2054166040519015158152f35b3461026f57604036600319011261026f57610ef5610eeb613274565b6024359033613477565b602060405160018152f35b3461026f57602036600319011261026f576004355f526011602052602060ff60405f2054166040519015158152f35b3461026f57602036600319011261026f57600435610f50600d5482106138ed565b5f526011602052606060ff60405f205416601260205260405f2054601360205260405f205490604051921515835260208301526040820152f35b3461026f57602036600319011261026f57600435610fab600d5482106138ed565b805f52600c60205260405f20600a8101908154610fd6600160ff8316610fd08161317c565b1461392d565b6006820180549260ff8460281c1661106157600393611015650100000000009260018060a01b03806001830154163314918215611050575b50506139ae565b65ff0000000000191617905560ff191617905533907fc25e2b14e82d9713d1570e77d6549051cc07e59f7f354600ce0e0c0f2aa29b0e5f80a3005b60029192500154163314898061100e565b60405162461bcd60e51b815260206004820152601060248201526f105b1c9958591e48191a5cdc1d5d195960821b6044820152606490fd5b3461026f57602036600319011261026f576004356110b5613b9f565b6110c2600d5482106138ed565b805f52600c60205260405f20600981015442111561118a57600a81016005815461110460ff82166110f28161317c565b60018114908115611178575b50613b42565b60ff191617905560038101805491821591821561114d57847fdc48a08bb890bd1b8e4261212a97a5e711e80830d96ba56b362f3ac5f427d51e602086604051908152a260018055005b5f8481948294838095556001808060a01b039101541690839061045857f11561044d578280806103fc565b90506111838161317c565b15876110fe565b60405162461bcd60e51b815260206004820152600b60248201526a139bdd08195e1c1a5c995960aa1b6044820152606490fd5b3461026f575f36600319011261026f57602060405160028152f35b3461026f57606036600319011261026f576111f1613274565b6111f961328a565b60443561120461344c565b60018060a01b039182841692835f526020916006835260ff60405f2054161561141e5781811695865f526006845260ff60405f205416156113e0578686146113a257906112536112589261358c565b61358c565b604051611264816131b6565b848152828101868152604082018581526060830191428352600854600160401b81101561138e5780600161129b92016008556133c7565b95909561137b57806003955116906001600160601b0360a01b9182885416178755600187019251169082541617905551600284015551910155600854905f198201918211611367577fef6248bf7f0923ad39826611e634dee3fc0e4fe0829524fc0ac73fcbdd61e4e29261132f60a093865f526007845261131f8160405f20613558565b875f526007845260405f20613558565b673782dace9d900000604051926801158e460913d00000845283015267de0b6b3a7640000060408301526060820152426080820152a3005b634e487b7160e01b5f52601160045260245ffd5b634e487b7160e01b5f525f60045260245ffd5b634e487b7160e01b5f52604160045260245ffd5b60405162461bcd60e51b815260048101859052601660248201527521b0b73737ba1030b3b932b2903bb4ba341039b2b63360511b6044820152606490fd5b60405162461bcd60e51b815260048101859052601660248201527514185c9d1e4810881b9bdd081c9959da5cdd195c995960521b6044820152606490fd5b60405162461bcd60e51b815260048101849052601660248201527514185c9d1e4810481b9bdd081c9959da5cdd195c995960521b6044820152606490fd5b3461026f575f36600319011261026f57602060405160148152f35b3461026f57602036600319011261026f57600435611498600d5482106138ed565b5f52600c6020526020600960405f2001544211604051908152f35b3461026f575f36600319011261026f576103606040516114d2816131ef565b600381526214d09560ea1b60208201526040519182918261322d565b3461026f5760208060031936011261026f57600435611510600d5482106138ed565b805f52600c825260405f2060ff92611533600185600a85015416610fd08161317c565b60068201805492611549868560281c161561396d565b60018060a01b039361156d856001840154163314868194821561173b5750506139ae565b811561171957506101008254611588888260081c1615613a3c565b61ff0019161782555b604051908152847fb5b8c6f3f26901ae272a13e794342be773b4367e88df23cef5b107f54cfa696f843393a35484808260081c16918261170c575b50506115d457005b6115dc613b9f565b825f52600c815260405f2093600685015490808260081c1691826116ff575b5050156116c557600a8401805460ff191660021790556003840154938415806116a1578560011b908682046002141715611367575f80806116416064829504809a613520565b988760055416828215611698575bf11561044d57600201915f808080888588541682821561168f575bf11561044d575f80516020613be383398151915292541693604051908152a360018055005b506108fc61166a565b506108fc61164f565b50600201546040515f8152921693505f80516020613be383398151915291a3610a02565b6064906040519062461bcd60e51b825260048201526013602482015272139bdd08199d5b1b1e4818dbdb999a5c9b5959606a1b6044820152fd5b60101c16905085806115fb565b60101c16905084866115cc565b8061172d88620100009360101c1615613a3c565b62ff00001916178255611591565b60029192500154163314868a61100e565b3461026f575f36600319011261026f576005546040516001600160a01b039091168152602090f35b3461026f575f36600319011261026f575f546040516001600160a01b039091168152602090f35b3461026f57602036600319011261026f575f6102406040516117bc816131d2565b8281528260208201528260408201528260608201528260808201528260a08201528260c08201528260e08201528261010082015282610120820152826101408201528261016082015282610180820152826101a0820152826101c0820152826101e082015282610200820152826102208201520152600d546118426004359182106138ed565b5f52600c60205261026060405f2060ff600a60405192611861846131d2565b8054845260018101546001600160a01b03908116602086015260028201541660408501526003810154606085015260048101546080850152600581015460a0850152600681015483908082166118b68161317c565b60c0870152818160081c16151560e0870152818160101c161515610100870152818160181c161515610120870152818160201c161515610140870152818160281c16151561016087015260018060a01b038160301c16610180870152818160d01c1615156101a087015260d81c1615156101c085015260018060a01b036007820154166101e0850152600881015461020085015260098101546102208501520154166119618161317c565b610240820152610240604051918051835260018060a01b03602082015116602084015260018060a01b036040820151166040840152606081015160608401526080810151608084015260a081015160a084015260c08101516119c28161317c565b60c084015260e0810151151560e0840152610100810151151561010084015261012081015115156101208401526101408101511515610140840152610160810151151561016084015260018060a01b03610180820151166101808401526101a081015115156101a08401526101c081015115156101c084015260018060a01b036101e0820151166101e08401526102008101516102008401526102208101516102208401520151611a728161317c565b610240820152f35b3461026f57602036600319011261026f576001600160a01b03611a9b613274565b165f52600b60205260405f208054611ab2816137f2565b915f5b828110611aca57604051806103608682613353565b80610e72610e6c610e60611ade9486613543565b611ab5565b3461026f5760208060031936011261026f576004355f52600f815260405f209060405190818184549182815201935f52815f20915f905b828210611b3157610360856103548189038261320b565b835486529485019460019384019390910190611b1a565b3461026f575f36600319011261026f57611b6061344c565b5f80546001600160a01b0319811682556001600160a01b03167f8be0079c531659141344cd1fd0a4f28419497f9722a3daafe3b4186f6b6457e08280a3005b3461026f57602036600319011261026f576001600160a01b03611bc0613274565b165f526003602052602060405f2054604051908152f35b3461026f57606036600319011261026f57600435611bf36132a0565b60443591335f5260206010815260ff928360405f20541615611eef57600d54831015611eb957825f52600c825260405f209084600a8301541695611c368761317c565b611c43600180981461392d565b845f5260118452611c638260405f209060ff801983541691151516179055565b601284528060405f2055601384524260405f205560405190821515825284820152847f2838ecb6364823b975674a8e119f611e8bea53a9b088128f1b87e481b1a4dbfe60403393a3611cb157005b60068101908154858160181c1680611eac575b15611e3c575061010061ff00198354161782558560018060a01b0391015416837fb5b8c6f3f26901ae272a13e794342be773b4367e88df23cef5b107f54cfa696f84604051898152a35b5483808260081c169182611e2f575b5050611d2557005b611d2d613b9f565b815f52600c815260405f2092600684015490808260081c169182611e22575b5050156116c557600a8301805460ff19166002179055600383015490811580611df75782861b908382046002141715611367576064611d8d91048093613520565b935f80808060018060a01b03968760055416828215611dee575bf11561044d57600201915f8080808885885416828215611de5575bf11561044d575f80516020613be383398151915292541693604051908152a38055005b506108fc611dc2565b506108fc611da7565b50925f80516020613be38339815191529150600260018060a01b0391015416926040515f8152a38055005b60101c1690508580611d4c565b60101c1690508386611d1d565b8581851c1680611e9f575b611e53575b5050611d0e565b620100009062ff00001916178255600260018060a01b0391015416837fb5b8c6f3f26901ae272a13e794342be773b4367e88df23cef5b107f54cfa696f846040515f8152a38580611e4c565b50858160101c1615611e47565b50858160081c1615611cc4565b60405162461bcd60e51b815260048101839052600e60248201526d496e76616c696420657363726f7760901b6044820152606490fd5b60405162461bcd60e51b81526004810183905260156024820152744e6f7420617574686f72697a6564206f7261636c6560581b6044820152606490fd5b3461026f575f36600319011261026f576020600d54604051908152f35b3461026f57602036600319011261026f576001600160a01b03611f6a613274565b165f526010602052602060ff60405f2054166040519015158152f35b608036600319011261026f576006604435101561026f57606435611faf60085460043510613737565b801590811580612413575b156123ce576024351561239357611fd260443561317c565b60443515801561237c575b612326575b61200c611ff06004356133c7565b5080546001600160a01b0316331490811561230f575b506138a8565b600d5491612019836137d0565b600d556201518080830292830414171561136757804201421161136757604051612042816131d2565b60043581523360208201525f604082015234606082015260243560808201525f60a082015261207260443561317c565b60443560c08201525f60e08201525f6101008201525f6101208201525f6101408201525f6101608201525f6101808201525f6101a08201525f6101c08201525f6101e0820152426102008201528142016102208201525f610240820152825f52600c602052610240600a60405f208351815560018060a01b036020850151166001600160601b0360a01b6001830154161760018201556002810160018060a01b036040860151166001600160601b0360a01b825416179055606084015160038201556080840151600482015560a084015160058201556006810160c085015161215a8161317c565b6121638161317c565b815460e08701516101008801516101208901516101408a01516101608b01516101808c01516001600160d01b031990961660ff979097169690961793151560081b61ff00169390931791151560101b62ff0000169190911790151560181b63ff000000161790151560201b64ff00000000161791151560281b65ff0000000000169190911760309190911b6601000000000000600160d01b03161781556101a08501511515815460ff60d81b6101c0880151151560d81b169160ff60d01b9060d01b169061ffff60d01b1916171790556007810160018060a01b036101e0860151166001600160601b0360a01b82541617905561020084015160088201556102208401516009820155019101516122798161317c565b6122828161317c565b60ff80198354169116179055335f52600e6020526122a38260405f20613558565b6004355f52600f6020526122ba8260405f20613558565b6040519034825260243560208301526122d460443561317c565b60443560408301524201606082015233917f41eb6251213fcf36d3b8a15dfe4117819146f03305829a70858dd024ac5478d1608060043593a4005b600101546001600160a01b03163314905084612006565b34611fe25760405162461bcd60e51b815260206004820152602360248201527f45544820726571756972656420666f722063727970746f2064656c6976657261604482015262626c6560e81b6064820152608490fd5b5061238860443561317c565b600560443514611fdd565b60405162461bcd60e51b815260206004820152601360248201527215985b1d59481a185cda081c995c5d5a5c9959606a1b6044820152606490fd5b60405162461bcd60e51b815260206004820152601960248201527f496e76616c69642065787069726174696f6e20706572696f64000000000000006044820152606490fd5b5061016d811115611fba565b3461026f57602036600319011261026f57600435612440600d5482106138ed565b805f52600c60205260405f20906006820180549061246360ff8360281c16613a7c565b6001600160a01b0391603081901c83161561258757600785019461248a8487541615613abe565b6124a684600183015416331485819382156125765750506139ae565b15612552575080546124be60ff8260d01c1615613b03565b60ff60d01b1916600160d01b1781555b33837fd98cadec9d2098dcc52aa7338b6287fdfbcb4dc9560d8dd34c278bcf0d56211e5f80a35460ff8160d01c1680612545575b61250857005b60301c1691826001600160601b0360a01b8254161790557f20b93fa4c7553a54f03d84e5f6e2836825011aa33759266fff710ae4883c66755f80a3005b5060ff8160d81c16612502565b61256260ff8260d81c1615613b03565b60ff60d81b1916600160d81b1781556124ce565b60029192500154163314858961100e565b60405162461bcd60e51b8152602060048201526013602482015272139bc8185c989a5d195c881c1c9bdc1bdcd959606a1b6044820152606490fd5b3461026f5760208060031936011261026f576001600160a01b036125e4613274565b165f526007815260405f208054906125fb8261377a565b92612609604051948561320b565b828452601f196126188461377a565b015f5b818110612667575050505f5b82811061263c576040518061036086826132af565b80610e7261265c6126506126629486613543565b90549060031b1c6133c7565b50613792565b612627565b8290604051612675816131b6565b5f81525f838201525f60408201525f60608201528282890101520161261b565b3461026f575f36600319011261026f57602060405160128152f35b3461026f57602036600319011261026f576004355f526012602052602060405f2054604051908152f35b3461026f57604036600319011261026f57600435602435906126ff600d5482106138ed565b805f52600c60205260405f20612721600160ff600a84015416610fd08161317c565b600681019081549161273960ff8460281c161561396d565b84156127fc57849160059160018060a01b0394612767866001850154163314809781156127ec575b506139ae565b85156127c557506301000000815461278560ff8260181c16156139f0565b63ff00000019161790555b015560405192835260208301527f723e101e3bad5bd63089d742f3881aa6d6153f0d1afa1a39d1241e822f3f273b60403393a3005b806127dc60ff6401000000009360201c16156139f0565b64ff000000001916179055612790565b905060028501541633148a612761565b60405162461bcd60e51b8152602060048201526013602482015272141c9bdbd9881a185cda081c995c5d5a5c9959606a1b6044820152606490fd5b3461026f57606036600319011261026f57612850613274565b61285861328a565b9060443560018060a01b03821692835f526020926004845260405f20335f5284528260405f2054106128b7576128ae93945f526004855260405f20335f52855260405f206128a7848254613520565b9055613477565b60405160018152f35b60405162461bcd60e51b815260048101859052600b60248201526a139bdd08185b1b1bddd95960aa1b6044820152606490fd5b3461026f57608036600319011261026f5760043561290661328a565b6001600160a01b03604435818116939084900361026f576064359161292961344c565b6129366008548310613737565b61293f826133c7565b5081808254169516948086148015612b45575b15612b005782908714918215612af0575b505015612aab57848414612a6d5760405161297d8161319a565b848152602081018681526040820184815260608301908682526080840192428452600954600160401b81101561138e578060016129bd9201600955613413565b96909661137b57806004965116906001600160601b0360a01b9182895416178855600188019251169082541617905551600285015551600384015551910155600954905f198201918211611367577f0a6bfa4c2948cad080827e8c991c5fc0463c4c91ed304ad9bd46b4e22789a4b292612a59606093865f52600a602052612a488160405f20613558565b875f52600b60205260405f20613558565b6040519182526020820152426040820152a3005b60405162461bcd60e51b815260206004820152601660248201527521b0b73737ba103932b837b93a103cb7bab939b2b63360511b6044820152606490fd5b60405162461bcd60e51b815260206004820152601f60248201527f5265706f72746564207061727479206e6f7420696e2061677265656d656e74006044820152606490fd5b6001015416861490508187612963565b60405162461bcd60e51b815260206004820152601960248201527f4e6f742070617274206f66207468652061677265656d656e74000000000000006044820152606490fd5b50826001830154168614612952565b3461026f5760208060031936011261026f57612b6e613274565b612b7661344c565b6001600160a01b0316908115612c6e57815f526006815260ff60405f205416612c35577f6f3bf3fa84e4763a43b3d23f9d79be242d6d5c834941ff4c1111b67469e1150c90825f526006815260405f20600160ff19825416179055612bdc60025461352d565b600255825f526003815260405f20612bf4815461352d565b9055604051835f7fddf252ad1be2c89b69c2b068fc378daa952ba7f163c4a11628f55a4df523b3ef8468056bc75e2d6310000094858152a3604051908152a2005b6064906040519062461bcd60e51b825260048201526012602482015271105b1c9958591e481c9959da5cdd195c995960721b6044820152fd5b6064906040519062461bcd60e51b825260048201526014602482015273496e76616c69642075736572206164647265737360601b6044820152fd5b3461026f57602036600319011261026f57612cc2613274565b612cca61344c565b600580546001600160a01b0319166001600160a01b0392909216919091179055005b3461026f575f36600319011261026f576020600254604051908152f35b3461026f57604036600319011261026f57612d22613274565b612d2a6132a0565b90612d3361344c565b6001600160a01b0316908115612d925760207f82a8fb1e779ea45ad427cc612e47087f5386a567e49dce488185e40646fa48d591835f5260108252612d878160405f209060ff801983541691151516179055565b6040519015158152a2005b60405162461bcd60e51b8152602060048201526016602482015275496e76616c6964206f7261636c65206164647265737360501b6044820152606490fd5b3461026f57604036600319011261026f57612de9613274565b602435335f52600460205260405f209160018060a01b031691825f526020528060405f20556040519081527f8c5be1e5ebec7d5bd14f71427d1e84f3dd0314c0f7b2291e5b200ac8c7c3b92560203392a3602060405160018152f35b3461026f5760208060031936011261026f5760043590612e68600d5483106138ed565b815f52600c815260405f20600a81019081549060ff8216612e888161317c565b612fc35760028101805490916001600160a01b0390818316612f7e57816001820154163314612f405791612edf60019492612ec8600e99989795546133c7565b5090808254163314918215612f30575b50506138a8565b33906001600160601b0360a01b1617905560ff1916179055335f5252612f088160405f20613558565b33907f69a24700048a4a15e862788b648906b0887a81574d51e34cdef1503d31a962a65f80a3005b8791925001541633148a80612ed8565b60405162461bcd60e51b815260048101889052601660248201527543616e6e6f74206a6f696e206f776e20657363726f7760501b6044820152606490fd5b60405162461bcd60e51b815260048101889052601760248201527f5061727469636970616e7420616c7265616479207365740000000000000000006044820152606490fd5b60405162461bcd60e51b8152600481018590526012602482015271457363726f77206e6f742070656e64696e6760701b6044820152606490fd5b3461026f575f36600319011261026f5761036060405161301c816131ef565b600b81526a29b0b137ba102a37b5b2b760a91b60208201526040519182918261322d565b3461026f57602036600319011261026f576004355f52600c60205260405f20805490600160a01b600190038060018301541690806002840154169060038401549060048501549060058601549260068701549360809360ff855260ff8616928460078b0154169760088b0154998d60098d01549c600a015460ff169d81526020015260408d015260608c0152848b015260a08a01526130de8161317c565b60c089015281518360081c16151560e089015281518360101c16151561010089015281518360181c16151561012089015281518360201c16151561014089015281518360281c1615156101608901528260301c1661018088015280518260d01c1615156101a0880152519060d81c1615156101c08601526101e08501526102008401526102208301526131708161317c565b61024082015261026090f35b6006111561318657565b634e487b7160e01b5f52602160045260245ffd5b60a0810190811067ffffffffffffffff82111761138e57604052565b6080810190811067ffffffffffffffff82111761138e57604052565b610260810190811067ffffffffffffffff82111761138e57604052565b6040810190811067ffffffffffffffff82111761138e57604052565b90601f8019910116810190811067ffffffffffffffff82111761138e57604052565b602080825282518183018190529093925f5b82811061326057505060409293505f838284010152601f8019910116010190565b81810186015184820160400152850161323f565b600435906001600160a01b038216820361026f57565b602435906001600160a01b038216820361026f57565b60243590811515820361026f57565b60208082019080835283518092528060408094019401925f905b8382106132d857505050505090565b845180516001600160a01b039081168852818501511687850152808201518783015260609081015190870152608090950194938201936001909101906132c9565b602090816040818301928281528551809452019301915f5b82811061333f575050505090565b835185529381019392810192600101613331565b60208082019080835283518092528060408094019401925f905b83821061337c57505050505090565b845180516001600160a01b0390811688528185015116878501528082015187830152606080820151908801526080908101519087015260a0909501949382019360019091019061336d565b6008548110156133ff5760085f5260021b7ff3f7a9fe364faab93b216da50a3214154f22a0a2b415b23a84c8169e8b636ee301905f90565b634e487b7160e01b5f52603260045260245ffd5b6009548110156133ff5760059060095f52027f6e1540171b6c0c960b71a7020d9f60077f6af931a8bbf590da0223dacf75c7af01905f90565b5f546001600160a01b0316330361345f57565b60405163118cdaa760e01b8152336004820152602490fd5b9060018060a01b03809216915f938385526003602052806040862054106134e45760406020927fddf252ad1be2c89b69c2b068fc378daa952ba7f163c4a11628f55a4df523b3ef9486885260038552828820848154039055169586815220818154019055604051908152a3565b60405162461bcd60e51b8152602060048201526014602482015273496e73756666696369656e742062616c616e636560601b6044820152606490fd5b9190820391821161136757565b9068056bc75e2d63100000820180921161136757565b80548210156133ff575f5260205f2001905f90565b8054600160401b81101561138e5761357591600182018155613543565b819291549060031b91821b915f19901b1916179055565b60018060a01b038091165f81815260209060038252604093678ac7230489e8000085832054106136e25783825260038352671bc16d674ec800008086842054106136a95790828581938187965260038652888320671bc16d674ec7ffff19908181540190556002540160025588519081527fddf252ad1be2c89b69c2b068fc378daa952ba7f163c4a11628f55a4df523b3ef968791a3600554169484825260038352676f05b59d3b2000009182828220541061366e57858152600384528181208054676f05b59d3b1fffff1901905586815281902080548301905551908152a3565b815162461bcd60e51b8152600481018590526014602482015273496e73756666696369656e742062616c616e636560601b6044820152606490fd5b855162461bcd60e51b81526004810185905260126024820152712737ba1032b737bab3b4103a3790313ab93760711b6044820152606490fd5b845162461bcd60e51b815260048101849052602860248201527f496e73756666696369656e7420746f6b656e7320666f7220766572696669636160448201526774696f6e2066656560c01b6064820152608490fd5b1561373e57565b60405162461bcd60e51b8152602060048201526014602482015273125b9d985b1a59081859dc99595b595b9d08125160621b6044820152606490fd5b67ffffffffffffffff811161138e5760051b60200190565b9060405161379f816131b6565b82546001600160a01b0390811682526001840154166020820152600283015460408201526003909201546060830152565b5f1981146113675760010190565b80518210156133ff5760209160051b010190565b906137fc8261377a565b60409061380b8251918261320b565b838152809361381c601f199161377a565b01915f5b83811061382d5750505050565b602090825161383b8161319a565b5f8152825f818301525f858301525f60608301525f6080830152828601015201613820565b9060405161386d8161319a565b82546001600160a01b039081168252600184015416602082015260028301546040820152600383015460608201526004909201546080830152565b156138af57565b60405162461bcd60e51b8152602060048201526016602482015275139bdd081c185c9d1e481d1bc81859dc99595b595b9d60521b6044820152606490fd5b156138f457565b60405162461bcd60e51b8152602060048201526011602482015270125b9d985b1a5908195cd8dc9bddc81251607a1b6044820152606490fd5b1561393457565b60405162461bcd60e51b8152602060048201526011602482015270457363726f77206e6f742061637469766560781b6044820152606490fd5b1561397457565b60405162461bcd60e51b8152602060048201526012602482015271115cd8dc9bddc81a5cc8191a5cdc1d5d195960721b6044820152606490fd5b156139b557565b60405162461bcd60e51b81526020600482015260136024820152724e6f7420706172747920746f20657363726f7760681b6044820152606490fd5b156139f757565b60405162461bcd60e51b815260206004820152601760248201527f50726f6f6620616c7265616479207375626d69747465640000000000000000006044820152606490fd5b15613a4357565b60405162461bcd60e51b8152602060048201526011602482015270105b1c9958591e4818dbdb999a5c9b5959607a1b6044820152606490fd5b15613a8357565b60405162461bcd60e51b8152602060048201526013602482015272115cd8dc9bddc81b9bdd08191a5cdc1d5d1959606a1b6044820152606490fd5b15613ac557565b60405162461bcd60e51b81526020600482015260166024820152754172626974657220616c72656164792061637469766560501b6044820152606490fd5b15613b0a57565b60405162461bcd60e51b815260206004820152601060248201526f105b1c9958591e48185c1c1c9bdd995960821b6044820152606490fd5b15613b4957565b60405162461bcd60e51b815260206004820152600e60248201526d496e76616c69642073746174757360901b6044820152606490fd5b908060209392818452848401375f828201840152601f01601f1916010190565b600260015414613bb0576002600155565b604051633ee5aeb560e01b8152600490fdfee17ee470ea3e8febc481bd75e11bce774fa8371a3c253c317df8dc3b8a49b0a16244ed823ca6be0f11bc890c3fafcf3c29cb23420c14243642e930b5e07e6d0aa26469706673582212203c566c4da74d9bdef1f74fec1caae0f4962bc564d7c58f00011384f030e40d6964736f6c63430008140033",
  "linkReferences": {},
  "deployedLinkReferences": {},
  "immutableReferences": {},
  "inputSourceName": "project/contracts/AgreementLedger.sol",
  "buildInfoId": "solc-0_8_20-4d5adff07d9a38829ed6f964d132f8d87ce893c6"
}