{
  "_format": "hh3-artifact-1",
  "contractName": "AgreementLedger",
  "sourceName": "contracts/AgreementLedger.sol",
  "abi": [
    {
      "inputs": [
        {
          "internalType": "address",
          "name": "_devWallet",
          "type": "address"
        }
      ],
      "stateMutability": "nonpayable",
      "type": "constructor"
    },
    {
      "inputs": [
        {
          "internalType": "address",
          "name": "owner",
          "type": "address"
        }
      ],
      "name": "OwnableInvalidOwner",
      "type": "error"
    },
    {
      "inputs": [
        {
          "internalType": "address",
          "name": "account",
          "type": "address"
        }
      ],
      "name": "OwnableUnauthorizedAccount",
      "type": "error"
    },
    {
      "anonymous": false,
      "inputs": [
        {
          "indexed": true,
          "internalType": "address",
          "name": "partyA",
          "type": "address"
        },
        {
          "indexed": true,
          "internalType": "address",
          "name": "partyB",
          "type": "address"
        },
        {
          "indexed": false,
          "internalType": "uint256",
          "name": "totalFee",
          "type": "uint256"
        },
        {
          "indexed": false,
          "internalType": "uint256",
          "name": "burned",
          "type": "uint256"
        },
        {
          "indexed": false,
          "internalType": "uint256",
          "name": "toDev",
          "type": "uint256"
        },
        {
          "indexed": false,
          "internalType": "bytes32",
          "name": "details",
          "type": "bytes32"
        },
        {
          "indexed": false,
          "internalType": "uint256",
          "name": "timestamp",
          "type": "uint256"
        }
      ],
      "name": "AgreementCreated",
      "type": "event"
    },
    {
      "anonymous": false,
      "inputs": [
        {
          "indexed": true,
          "internalType": "address",
          "name": "owner",
          "type": "address"
        },
        {
          "indexed": true,
          "internalType": "address",
          "name": "spender",
          "type": "address"
        },
        {
          "indexed": false,
          "internalType": "uint256",
          "name": "value",
          "type": "uint256"
        }
      ],
      "name": "Approval",
      "type": "event"
    },
    {
      "anonymous": false,
      "inputs": [
        {
          "indexed": true,
          "internalType": "address",
          "name": "previousOwner",
          "type": "address"
        },
        {
          "indexed": true,
          "internalType": "address",
          "name": "newOwner",
          "type": "address"
        }
      ],
      "name": "OwnershipTransferred",
      "type": "event"
    },
    {
      "anonymous": false,
      "inputs": [
        {
          "indexed": true,
          "internalType": "address",
          "name": "user",
          "type": "address"
        },
        {
          "indexed": false,
          "internalType": "uint256",
          "name": "reward",
          "type": "uint256"
        }
      ],
      "name": "Registered",
      "type": "event"
    },
    {
      "anonymous": false,
      "inputs": [
        {
          "indexed": true,
          "internalType": "address",
          "name": "reporter",
          "type": "address"
        },
        {
          "indexed": true,
          "internalType": "address",
          "name": "reportedParty",
          "type": "address"
        },
        {
          "indexed": false,
          "internalType": "uint256",
          "name": "agreementId",
          "type": "uint256"
        },
        {
          "indexed": false,
          "internalType": "bytes32",
          "name": "reason",
          "type": "bytes32"
        },
        {
          "indexed": false,
          "internalType": "uint256",
          "name": "timestamp",
          "type": "uint256"
        }
      ],
      "name": "ReportCreated",
      "type": "event"
    },
    {
      "anonymous": false,
      "inputs": [
        {
          "indexed": true,
          "internalType": "address",
          "name": "from",
          "type": "address"
        },
        {
          "indexed": true,
          "internalType": "address",
          "name": "to",
          "type": "address"
        },
        {
          "indexed": false,
          "internalType": "uint256",
          "name": "value",
          "type": "uint256"
        }
      ],
      "name": "Transfer",
      "type": "event"
    },
    {
      "inputs": [],
      "name": "BURN_PERCENT",
      "outputs": [
        {
          "internalType": "uint256",
          "name": "",
          "type": "uint256"
        }
      ],
      "stateMutability": "view",
      "type": "function"
    },
    {
      "inputs": [],
      "name": "VERIFY_FEE",
      "outputs": [
        {
          "internalType": "uint256",
          "name": "",
          "type": "uint256"
        }
      ],
      "stateMutability": "view",
      "type": "function"
    },
    {
      "inputs": [
        {
          "internalType": "uint256",
          "name": "",
          "type": "uint256"
        }
      ],
      "name": "agreements",
      "outputs": [
        {
          "internalType": "address",
          "name": "partyA",
          "type": "address"
        },
        {
          "internalType": "address",
          "name": "partyB",
          "type": "address"
        },
        {
          "internalType": "bytes32",
          "name": "details",
          "type": "bytes32"
        },
        {
          "internalType": "uint256",
          "name": "timestamp",
          "type": "uint256"
        }
      ],
      "stateMutability": "view",
      "type": "function"
    },
    {
      "inputs": [
        {
          "internalType": "address",
          "name": "",
          "type": "address"
        },
        {
          "internalType": "address",
          "name": "",
          "type": "address"
        }
      ],
      "name": "allowance",
      "outputs": [
        {
          "internalType": "uint256",
          "name": "",
          "type": "uint256"
        }
      ],
      "stateMutability": "view",
      "type": "function"
    },
    {
      "inputs": [
        {
          "internalType": "address",
          "name": "spender",
          "type": "address"
        },
        {
          "internalType": "uint256",
          "name": "value",
          "type": "uint256"
        }
      ],
      "name": "approve",
      "outputs": [
        {
          "internalType": "bool",
          "name": "",
          "type": "bool"
        }
      ],
      "stateMutability": "nonpayable",
      "type": "function"
    },
    {
      "inputs": [
        {
          "internalType": "address",
          "name": "",
          "type": "address"
        }
      ],
      "name": "balanceOf",
      "outputs": [
        {
          "internalType": "uint256",
          "name": "",
          "type": "uint256"
        }
      ],
      "stateMutability": "view",
      "type": "function"
    },
    {
      "inputs": [
        {
          "internalType": "address",
          "name": "otherParty",
          "type": "address"
        },
        {
          "internalType": "bytes32",
          "name": "detailsHash",
          "type": "bytes32"
        }
      ],
      "name": "createAgreement",
      "outputs": [],
      "stateMutability": "nonpayable",
      "type": "function"
    },
    {
      "inputs": [],
      "name": "decimals",
      "outputs": [
        {
          "internalType": "uint8",
          "name": "",
          "type": "uint8"
        }
      ],
      "stateMutability": "view",
      "type": "function"
    },
    {
      "inputs": [],
      "name": "devWallet",
      "outputs": [
        {
          "internalType": "address",
          "name": "",
          "type": "address"
        }
      ],
      "stateMutability": "view",
      "type": "function"
    },
    {
      "inputs": [],
      "name": "getAgreements",
      "outputs": [
        {
          "components": [
            {
              "internalType": "address",
              "name": "partyA",
              "type": "address"
            },
            {
              "internalType": "address",
              "name": "partyB",
              "type": "address"
            },
            {
              "internalType": "bytes32",
              "name": "details",
              "type": "bytes32"
            },
            {
              "internalType": "uint256",
              "name": "timestamp",
              "type": "uint256"
            }
          ],
          "internalType": "struct AgreementLedger.Agreement[]",
          "name": "",
          "type": "tuple[]"
        }
      ],
      "stateMutability": "view",
      "type": "function"
    },
    {
      "inputs": [
        {
          "internalType": "address",
          "name": "party",
          "type": "address"
        }
      ],
      "name": "getAgreementsByParty",
      "outputs": [
        {
          "components": [
            {
              "internalType": "address",
              "name": "partyA",
              "type": "address"
            },
            {
              "internalType": "address",
              "name": "partyB",
              "type": "address"
            },
            {
              "internalType": "bytes32",
              "name": "details",
              "type": "bytes32"
            },
            {
              "internalType": "uint256",
              "name": "timestamp",
              "type": "uint256"
            }
          ],
          "internalType": "struct AgreementLedger.Agreement[]",
          "name": "",
          "type": "tuple[]"
        }
      ],
      "stateMutability": "view",
      "type": "function"
    },
    {
      "inputs": [
        {
          "internalType": "address",
          "name": "party",
          "type": "address"
        }
      ],
      "name": "getReportsAgainstParty",
      "outputs": [
        {
          "components": [
            {
              "internalType": "address",
              "name": "reporter",
              "type": "address"
            },
            {
              "internalType": "address",
              "name": "reportedParty",
              "type": "address"
            },
            {
              "internalType": "uint256",
              "name": "agreementId",
              "type": "uint256"
            },
            {
              "internalType": "bytes32",
              "name": "reason",
              "type": "bytes32"
            },
            {
              "internalType": "uint256",
              "name": "timestamp",
              "type": "uint256"
            }
          ],
          "internalType": "struct AgreementLedger.Report[]",
          "name": "",
          "type": "tuple[]"
        }
      ],
      "stateMutability": "view",
      "type": "function"
    },
    {
      "inputs": [
        {
          "internalType": "address",
          "name": "reporter",
          "type": "address"
        }
      ],
      "name": "getReportsByReporter",
      "outputs": [
        {
          "components": [
            {
              "internalType": "address",
              "name": "reporter",
              "type": "address"
            },
            {
              "internalType": "address",
              "name": "reportedParty",
              "type": "address"
            },
            {
              "internalType": "uint256",
              "name": "agreementId",
              "type": "uint256"
            },
            {
              "internalType": "bytes32",
              "name": "reason",
              "type": "bytes32"
            },
            {
              "internalType": "uint256",
              "name": "timestamp",
              "type": "uint256"
            }
          ],
          "internalType": "struct AgreementLedger.Report[]",
          "name": "",
          "type": "tuple[]"
        }
      ],
      "stateMutability": "view",
      "type": "function"
    },
    {
      "inputs": [],
      "name": "name",
      "outputs": [
        {
          "internalType": "string",
          "name": "",
          "type": "string"
        }
      ],
      "stateMutability": "view",
      "type": "function"
    },
    {
      "inputs": [],
      "name": "owner",
      "outputs": [
        {
          "internalType": "address",
          "name": "",
          "type": "address"
        }
      ],
      "stateMutability": "view",
      "type": "function"
    },
    {
      "inputs": [],
      "name": "registerUser",
      "outputs": [],
      "stateMutability": "nonpayable",
      "type": "function"
    },
    {
      "inputs": [
        {
          "internalType": "address",
          "name": "",
          "type": "address"
        }
      ],
      "name": "registered",
      "outputs": [
        {
          "internalType": "bool",
          "name": "",
          "type": "bool"
        }
      ],
      "stateMutability": "view",
      "type": "function"
    },
    {
      "inputs": [],
      "name": "renounceOwnership",
      "outputs": [],
      "stateMutability": "nonpayable",
      "type": "function"
    },
    {
      "inputs": [
        {
          "internalType": "uint256",
          "name": "agreementId",
          "type": "uint256"
        },
        {
          "internalType": "address",
          "name": "reportedParty",
          "type": "address"
        },
        {
          "internalType": "bytes32",
          "name": "reason",
          "type": "bytes32"
        }
      ],
      "name": "reportIssue",
      "outputs": [],
      "stateMutability": "nonpayable",
      "type": "function"
    },
    {
      "inputs": [
        {
          "internalType": "uint256",
          "name": "",
          "type": "uint256"
        }
      ],
      "name": "reports",
      "outputs": [
        {
          "internalType": "address",
          "name": "reporter",
          "type": "address"
        },
        {
          "internalType": "address",
          "name": "reportedParty",
          "type": "address"
        },
        {
          "internalType": "uint256",
          "name": "agreementId",
          "type": "uint256"
        },
        {
          "internalType": "bytes32",
          "name": "reason",
          "type": "bytes32"
        },
        {
          "internalType": "uint256",
          "name": "timestamp",
          "type": "uint256"
        }
      ],
      "stateMutability": "view",
      "type": "function"
    },
    {
      "inputs": [
        {
          "internalType": "address",
          "name": "_new",
          "type": "address"
        }
      ],
      "name": "setDevWallet",
      "outputs": [],
      "stateMutability": "nonpayable",
      "type": "function"
    },
    {
      "inputs": [],
      "name": "symbol",
      "outputs": [
        {
          "internalType": "string",
          "name": "",
          "type": "string"
        }
      ],
      "stateMutability": "view",
      "type": "function"
    },
    {
      "inputs": [],
      "name": "totalSupply",
      "outputs": [
        {
          "internalType": "uint256",
          "name": "",
          "type": "uint256"
        }
      ],
      "stateMutability": "view",
      "type": "function"
    },
    {
      "inputs": [
        {
          "internalType": "address",
          "name": "to",
          "type": "address"
        },
        {
          "internalType": "uint256",
          "name": "value",
          "type": "uint256"
        }
      ],
      "name": "transfer",
      "outputs": [
        {
          "internalType": "bool",
          "name": "",
          "type": "bool"
        }
      ],
      "stateMutability": "nonpayable",
      "type": "function"
    },
    {
      "inputs": [
        {
          "internalType": "address",
          "name": "from",
          "type": "address"
        },
        {
          "internalType": "address",
          "name": "to",
          "type": "address"
        },
        {
          "internalType": "uint256",
          "name": "value",
          "type": "uint256"
        }
      ],
      "name": "transferFrom",
      "outputs": [
        {
          "internalType": "bool",
          "name": "",
          "type": "bool"
        }
      ],
      "stateMutability": "nonpayable",
      "type": "function"
    },
    {
      "inputs": [
        {
          "internalType": "address",
          "name": "newOwner",
          "type": "address"
        }
      ],
      "name": "transferOwnership",
      "outputs": [],
      "stateMutability": "nonpayable",
      "type": "function"
    }
  ],
  "bytecode": "0x608060405234801561000f575f5ffd5b506040516134ec3803806134ec83398181016040528101906100319190610305565b335f73ffffffffffffffffffffffffffffffffffffffff168173ffffffffffffffffffffffffffffffffffffffff16036100a2575f6040517f1e4fbdf7000000000000000000000000000000000000000000000000000000008152600401610099919061033f565b60405180910390fd5b6100b18161011260201b60201c565b508060045f6101000a81548173ffffffffffffffffffffffffffffffffffffffff021916908373ffffffffffffffffffffffffffffffffffffffff16021790555061010c3369d3c21bcecceda10000006101d360201b60201c565b506103e9565b5f5f5f9054906101000a900473ffffffffffffffffffffffffffffffffffffffff169050815f5f6101000a81548173ffffffffffffffffffffffffffffffffffffffff021916908373ffffffffffffffffffffffffffffffffffffffff1602179055508173ffffffffffffffffffffffffffffffffffffffff168173ffffffffffffffffffffffffffffffffffffffff167f8be0079c531659141344cd1fd0a4f28419497f9722a3daafe3b4186f6b6457e060405160405180910390a35050565b8060015f8282546101e4919061038e565b925050819055508060025f8473ffffffffffffffffffffffffffffffffffffffff1673ffffffffffffffffffffffffffffffffffffffff1681526020019081526020015f205f828254610237919061038e565b925050819055508173ffffffffffffffffffffffffffffffffffffffff165f73ffffffffffffffffffffffffffffffffffffffff167fddf252ad1be2c89b69c2b068fc378daa952ba7f163c4a11628f55a4df523b3ef8360405161029b91906103d0565b60405180910390a35050565b5f5ffd5b5f73ffffffffffffffffffffffffffffffffffffffff82169050919050565b5f6102d4826102ab565b9050919050565b6102e4816102ca565b81146102ee575f5ffd5b50565b5f815190506102ff816102db565b92915050565b5f6020828403121561031a576103196102a7565b5b5f610327848285016102f1565b91505092915050565b610339816102ca565b82525050565b5f6020820190506103525f830184610330565b92915050565b5f819050919050565b7f4e487b71000000000000000000000000000000000000000000000000000000005f52601160045260245ffd5b5f61039882610358565b91506103a383610358565b92508282019050808211156103bb576103ba610361565b5b92915050565b6103ca81610358565b82525050565b5f6020820190506103e35f8301846103c1565b92915050565b6130f6806103f65f395ff3fe608060405234801561000f575f5ffd5b506004361061018c575f3560e01c80638da5cb5b116100dc578063b492177411610095578063cf7e92421161006f578063cf7e9242146104b1578063dd62ed3e146104cf578063f2fde38b146104ff578063ff60bee81461051b5761018c565b8063b49217741461041a578063bd14de961461044a578063c942adf71461047d5761018c565b80638da5cb5b146103425780638ea5220f1461036057806395d89b411461037e5780639c9867641461039c578063a9059cbb146103ba578063b2dd5c07146103ea5761018c565b8063313ce56711610149578063641582911161012357806364158291146102bc57806370a08231146102d8578063715018a6146103085780637bb5b08d146103125761018c565b8063313ce567146102645780634b7fa85d146102825780634d3820eb146102b25761018c565b806306fdde0314610190578063095ea7b3146101ae5780630a9701c4146101de57806318160ddd146101fa5780631f53ac021461021857806323b872dd14610234575b5f5ffd5b610198610539565b6040516101a59190612345565b60405180910390f35b6101c860048036038101906101c391906123f6565b610572565b6040516101d5919061244e565b60405180910390f35b6101f860048036038101906101f3919061249a565b61065f565b005b610202610b75565b60405161020f91906124f9565b60405180910390f35b610232600480360381019061022d9190612512565b610b7b565b005b61024e6004803603810190610249919061253d565b610bc6565b60405161025b919061244e565b60405180910390f35b61026c610d26565b60405161027991906125a8565b60405180910390f35b61029c60048036038101906102979190612512565b610d2b565b6040516102a991906126e9565b60405180910390f35b6102ba610f12565b005b6102d660048036038101906102d19190612709565b611059565b005b6102f260048036038101906102ed9190612512565b6114c6565b6040516102ff91906124f9565b60405180910390f35b6103106114db565b005b61032c60048036038101906103279190612512565b6114ee565b6040516103399190612855565b60405180910390f35b61034a6116df565b6040516103579190612884565b60405180910390f35b610368611706565b6040516103759190612884565b60405180910390f35b61038661172b565b6040516103939190612345565b60405180910390f35b6103a4611764565b6040516103b191906124f9565b60405180910390f35b6103d460048036038101906103cf91906123f6565b611769565b6040516103e1919061244e565b60405180910390f35b61040460048036038101906103ff9190612512565b61177f565b604051610411919061244e565b60405180910390f35b610434600480360381019061042f9190612512565b61179c565b6040516104419190612855565b60405180910390f35b610464600480360381019061045f919061289d565b61198d565b60405161047494939291906128d7565b60405180910390f35b6104976004803603810190610492919061289d565b611a06565b6040516104a895949392919061291a565b60405180910390f35b6104b9611a85565b6040516104c691906126e9565b60405180910390f35b6104e960048036038101906104e4919061296b565b611b9e565b6040516104f691906124f9565b60405180910390f35b61051960048036038101906105149190612512565b611bbe565b005b610523611c42565b60405161053091906124f9565b60405180910390f35b6040518060400160405280600b81526020017f5361626f7420546f6b656e00000000000000000000000000000000000000000081525081565b5f8160035f3373ffffffffffffffffffffffffffffffffffffffff1673ffffffffffffffffffffffffffffffffffffffff1681526020019081526020015f205f8573ffffffffffffffffffffffffffffffffffffffff1673ffffffffffffffffffffffffffffffffffffffff1681526020019081526020015f20819055508273ffffffffffffffffffffffffffffffffffffffff163373ffffffffffffffffffffffffffffffffffffffff167f8c5be1e5ebec7d5bd14f71427d1e84f3dd0314c0f7b2291e5b200ac8c7c3b9258460405161064d91906124f9565b60405180910390a36001905092915050565b60078054905083106106a6576040517f08c379a000000000000000000000000000000000000000000000000000000000815260040161069d906129f3565b60405180910390fd5b5f600784815481106106bb576106ba612a11565b5b905f5260205f2090600402019050805f015f9054906101000a900473ffffffffffffffffffffffffffffffffffffffff1673ffffffffffffffffffffffffffffffffffffffff163373ffffffffffffffffffffffffffffffffffffffff1614806107735750806001015f9054906101000a900473ffffffffffffffffffffffffffffffffffffffff1673ffffffffffffffffffffffffffffffffffffffff163373ffffffffffffffffffffffffffffffffffffffff16145b6107b2576040517f08c379a00000000000000000000000000000000000000000000000000000000081526004016107a990612a88565b60405180910390fd5b805f015f9054906101000a900473ffffffffffffffffffffffffffffffffffffffff1673ffffffffffffffffffffffffffffffffffffffff168373ffffffffffffffffffffffffffffffffffffffff16148061085c5750806001015f9054906101000a900473ffffffffffffffffffffffffffffffffffffffff1673ffffffffffffffffffffffffffffffffffffffff168373ffffffffffffffffffffffffffffffffffffffff16145b61089b576040517f08c379a000000000000000000000000000000000000000000000000000000000815260040161089290612af0565b60405180910390fd5b8273ffffffffffffffffffffffffffffffffffffffff163373ffffffffffffffffffffffffffffffffffffffff1603610909576040517f08c379a000000000000000000000000000000000000000000000000000000000815260040161090090612b58565b60405180910390fd5b60086040518060a001604052803373ffffffffffffffffffffffffffffffffffffffff1681526020018573ffffffffffffffffffffffffffffffffffffffff16815260200186815260200184815260200142815250908060018154018082558091505060019003905f5260205f2090600502015f909190919091505f820151815f015f6101000a81548173ffffffffffffffffffffffffffffffffffffffff021916908373ffffffffffffffffffffffffffffffffffffffff1602179055506020820151816001015f6101000a81548173ffffffffffffffffffffffffffffffffffffffff021916908373ffffffffffffffffffffffffffffffffffffffff16021790555060408201518160020155606082015181600301556080820151816004015550505f6001600880549050610a419190612ba3565b905060095f3373ffffffffffffffffffffffffffffffffffffffff1673ffffffffffffffffffffffffffffffffffffffff1681526020019081526020015f2081908060018154018082558091505060019003905f5260205f20015f9091909190915055600a5f8573ffffffffffffffffffffffffffffffffffffffff1673ffffffffffffffffffffffffffffffffffffffff1681526020019081526020015f2081908060018154018082558091505060019003905f5260205f20015f90919091909150558373ffffffffffffffffffffffffffffffffffffffff163373ffffffffffffffffffffffffffffffffffffffff167f0a6bfa4c2948cad080827e8c991c5fc0463c4c91ed304ad9bd46b4e22789a4b2878642604051610b6693929190612bd6565b60405180910390a35050505050565b60015481565b610b83611c4e565b8060045f6101000a81548173ffffffffffffffffffffffffffffffffffffffff021916908373ffffffffffffffffffffffffffffffffffffffff16021790555050565b5f8160035f8673ffffffffffffffffffffffffffffffffffffffff1673ffffffffffffffffffffffffffffffffffffffff1681526020019081526020015f205f3373ffffffffffffffffffffffffffffffffffffffff1673ffffffffffffffffffffffffffffffffffffffff1681526020019081526020015f20541015610c82576040517f08c379a0000000000000000000000000000000000000000000000000000000008152600401610c7990612c55565b60405180910390fd5b8160035f8673ffffffffffffffffffffffffffffffffffffffff1673ffffffffffffffffffffffffffffffffffffffff1681526020019081526020015f205f3373ffffffffffffffffffffffffffffffffffffffff1673ffffffffffffffffffffffffffffffffffffffff1681526020019081526020015f205f828254610d099190612ba3565b92505081905550610d1b848484611cd5565b600190509392505050565b601281565b60605f60065f8473ffffffffffffffffffffffffffffffffffffffff1673ffffffffffffffffffffffffffffffffffffffff1681526020019081526020015f2090505f818054905067ffffffffffffffff811115610d8c57610d8b612c73565b5b604051908082528060200260200182016040528015610dc557816020015b610db261222f565b815260200190600190039081610daa5790505b5090505f5f90505b8280549050811015610f07576007838281548110610dee57610ded612a11565b5b905f5260205f20015481548110610e0857610e07612a11565b5b905f5260205f2090600402016040518060800160405290815f82015f9054906101000a900473ffffffffffffffffffffffffffffffffffffffff1673ffffffffffffffffffffffffffffffffffffffff1673ffffffffffffffffffffffffffffffffffffffff168152602001600182015f9054906101000a900473ffffffffffffffffffffffffffffffffffffffff1673ffffffffffffffffffffffffffffffffffffffff1673ffffffffffffffffffffffffffffffffffffffff16815260200160028201548152602001600382015481525050828281518110610eef57610eee612a11565b5b60200260200101819052508080600101915050610dcd565b508092505050919050565b60055f3373ffffffffffffffffffffffffffffffffffffffff1673ffffffffffffffffffffffffffffffffffffffff1681526020019081526020015f205f9054906101000a900460ff1615610f9c576040517f08c379a0000000000000000000000000000000000000000000000000000000008152600401610f9390612cea565b60405180910390fd5b600160055f3373ffffffffffffffffffffffffffffffffffffffff1673ffffffffffffffffffffffffffffffffffffffff1681526020019081526020015f205f6101000a81548160ff0219169083151502179055505f68056bc75e2d6310000090506110083382611e53565b3373ffffffffffffffffffffffffffffffffffffffff167f6f3bf3fa84e4763a43b3d23f9d79be242d6d5c834941ff4c1111b67469e1150c8260405161104e91906124f9565b60405180910390a250565b60055f3373ffffffffffffffffffffffffffffffffffffffff1673ffffffffffffffffffffffffffffffffffffffff1681526020019081526020015f205f9054906101000a900460ff166110e2576040517f08c379a00000000000000000000000000000000000000000000000000000000081526004016110d990612d52565b60405180910390fd5b60055f8373ffffffffffffffffffffffffffffffffffffffff1673ffffffffffffffffffffffffffffffffffffffff1681526020019081526020015f205f9054906101000a900460ff1661116b576040517f08c379a000000000000000000000000000000000000000000000000000000000815260040161116290612dba565b60405180910390fd5b8173ffffffffffffffffffffffffffffffffffffffff163373ffffffffffffffffffffffffffffffffffffffff16036111d9576040517f08c379a00000000000000000000000000000000000000000000000000000000081526004016111d090612e22565b60405180910390fd5b6111e233611f27565b6111eb82611f27565b5f60405180608001604052803373ffffffffffffffffffffffffffffffffffffffff1681526020018473ffffffffffffffffffffffffffffffffffffffff168152602001838152602001428152509050600781908060018154018082558091505060019003905f5260205f2090600402015f909190919091505f820151815f015f6101000a81548173ffffffffffffffffffffffffffffffffffffffff021916908373ffffffffffffffffffffffffffffffffffffffff1602179055506020820151816001015f6101000a81548173ffffffffffffffffffffffffffffffffffffffff021916908373ffffffffffffffffffffffffffffffffffffffff160217905550604082015181600201556060820151816003015550505f60016007805490506113179190612ba3565b905060065f3373ffffffffffffffffffffffffffffffffffffffff1673ffffffffffffffffffffffffffffffffffffffff1681526020019081526020015f2081908060018154018082558091505060019003905f5260205f20015f909190919091505560065f8573ffffffffffffffffffffffffffffffffffffffff1673ffffffffffffffffffffffffffffffffffffffff1681526020019081526020015f2081908060018154018082558091505060019003905f5260205f20015f90919091909150558373ffffffffffffffffffffffffffffffffffffffff163373ffffffffffffffffffffffffffffffffffffffff167fef6248bf7f0923ad39826611e634dee3fc0e4fe0829524fc0ac73fcbdd61e4e26002678ac7230489e8000061143f9190612e40565b606460146002678ac7230489e800006114589190612e40565b6114629190612e40565b61146c9190612eae565b60646014606461147c9190612ba3565b6002678ac7230489e800006114919190612e40565b61149b9190612e40565b6114a59190612eae565b88426040516114b8959493929190612ede565b60405180910390a350505050565b6002602052805f5260405f205f915090505481565b6114e3611c4e565b6114ec5f612025565b565b60605f600a5f8473ffffffffffffffffffffffffffffffffffffffff1673ffffffffffffffffffffffffffffffffffffffff1681526020019081526020015f2090505f818054905067ffffffffffffffff81111561154f5761154e612c73565b5b60405190808252806020026020018201604052801561158857816020015b61157561227f565b81526020019060019003908161156d5790505b5090505f5f90505b82805490508110156116d45760088382815481106115b1576115b0612a11565b5b905f5260205f200154815481106115cb576115ca612a11565b5b905f5260205f2090600502016040518060a00160405290815f82015f9054906101000a900473ffffffffffffffffffffffffffffffffffffffff1673ffffffffffffffffffffffffffffffffffffffff1673ffffffffffffffffffffffffffffffffffffffff168152602001600182015f9054906101000a900473ffffffffffffffffffffffffffffffffffffffff1673ffffffffffffffffffffffffffffffffffffffff1673ffffffffffffffffffffffffffffffffffffffff16815260200160028201548152602001600382015481526020016004820154815250508282815181106116bc576116bb612a11565b5b60200260200101819052508080600101915050611590565b508092505050919050565b5f5f5f9054906101000a900473ffffffffffffffffffffffffffffffffffffffff16905090565b60045f9054906101000a900473ffffffffffffffffffffffffffffffffffffffff1681565b6040518060400160405280600381526020017f534254000000000000000000000000000000000000000000000000000000000081525081565b601481565b5f611775338484611cd5565b6001905092915050565b6005602052805f5260405f205f915054906101000a900460ff1681565b60605f60095f8473ffffffffffffffffffffffffffffffffffffffff1673ffffffffffffffffffffffffffffffffffffffff1681526020019081526020015f2090505f818054905067ffffffffffffffff8111156117fd576117fc612c73565b5b60405190808252806020026020018201604052801561183657816020015b61182361227f565b81526020019060019003908161181b5790505b5090505f5f90505b828054905081101561198257600883828154811061185f5761185e612a11565b5b905f5260205f2001548154811061187957611878612a11565b5b905f5260205f2090600502016040518060a00160405290815f82015f9054906101000a900473ffffffffffffffffffffffffffffffffffffffff1673ffffffffffffffffffffffffffffffffffffffff1673ffffffffffffffffffffffffffffffffffffffff168152602001600182015f9054906101000a900473ffffffffffffffffffffffffffffffffffffffff1673ffffffffffffffffffffffffffffffffffffffff1673ffffffffffffffffffffffffffffffffffffffff168152602001600282015481526020016003820154815260200160048201548152505082828151811061196a57611969612a11565b5b6020026020010181905250808060010191505061183e565b508092505050919050565b6007818154811061199c575f80fd5b905f5260205f2090600402015f91509050805f015f9054906101000a900473ffffffffffffffffffffffffffffffffffffffff1690806001015f9054906101000a900473ffffffffffffffffffffffffffffffffffffffff16908060020154908060030154905084565b60088181548110611a15575f80fd5b905f5260205f2090600502015f91509050805f015f9054906101000a900473ffffffffffffffffffffffffffffffffffffffff1690806001015f9054906101000a900473ffffffffffffffffffffffffffffffffffffffff16908060020154908060030154908060040154905085565b60606007805480602002602001604051908101604052809291908181526020015f905b82821015611b95578382905f5260205f2090600402016040518060800160405290815f82015f9054906101000a900473ffffffffffffffffffffffffffffffffffffffff1673ffffffffffffffffffffffffffffffffffffffff1673ffffffffffffffffffffffffffffffffffffffff168152602001600182015f9054906101000a900473ffffffffffffffffffffffffffffffffffffffff1673ffffffffffffffffffffffffffffffffffffffff1673ffffffffffffffffffffffffffffffffffffffff1681526020016002820154815260200160038201548152505081526020019060010190611aa8565b50505050905090565b6003602052815f5260405f20602052805f5260405f205f91509150505481565b611bc6611c4e565b5f73ffffffffffffffffffffffffffffffffffffffff168173ffffffffffffffffffffffffffffffffffffffff1603611c36575f6040517f1e4fbdf7000000000000000000000000000000000000000000000000000000008152600401611c2d9190612884565b60405180910390fd5b611c3f81612025565b50565b678ac7230489e8000081565b611c566120e6565b73ffffffffffffffffffffffffffffffffffffffff16611c746116df565b73ffffffffffffffffffffffffffffffffffffffff1614611cd357611c976120e6565b6040517f118cdaa7000000000000000000000000000000000000000000000000000000008152600401611cca9190612884565b60405180910390fd5b565b8060025f8573ffffffffffffffffffffffffffffffffffffffff1673ffffffffffffffffffffffffffffffffffffffff1681526020019081526020015f20541015611d55576040517f08c379a0000000000000000000000000000000000000000000000000000000008152600401611d4c90612f79565b60405180910390fd5b8060025f8573ffffffffffffffffffffffffffffffffffffffff1673ffffffffffffffffffffffffffffffffffffffff1681526020019081526020015f205f82825403925050819055508060025f8473ffffffffffffffffffffffffffffffffffffffff1673ffffffffffffffffffffffffffffffffffffffff1681526020019081526020015f205f82825401925050819055508173ffffffffffffffffffffffffffffffffffffffff168373ffffffffffffffffffffffffffffffffffffffff167fddf252ad1be2c89b69c2b068fc378daa952ba7f163c4a11628f55a4df523b3ef83604051611e4691906124f9565b60405180910390a3505050565b8060015f828254611e649190612f97565b925050819055508060025f8473ffffffffffffffffffffffffffffffffffffffff1673ffffffffffffffffffffffffffffffffffffffff1681526020019081526020015f205f828254611eb79190612f97565b925050819055508173ffffffffffffffffffffffffffffffffffffffff165f73ffffffffffffffffffffffffffffffffffffffff167fddf252ad1be2c89b69c2b068fc378daa952ba7f163c4a11628f55a4df523b3ef83604051611f1b91906124f9565b60405180910390a35050565b678ac7230489e8000060025f8373ffffffffffffffffffffffffffffffffffffffff1673ffffffffffffffffffffffffffffffffffffffff1681526020019081526020015f20541015611faf576040517f08c379a0000000000000000000000000000000000000000000000000000000008152600401611fa69061303a565b60405180910390fd5b5f60646014678ac7230489e80000611fc79190612e40565b611fd19190612eae565b90505f81678ac7230489e80000611fe89190612ba3565b9050611ff483836120ed565b6120208360045f9054906101000a900473ffffffffffffffffffffffffffffffffffffffff1683611cd5565b505050565b5f5f5f9054906101000a900473ffffffffffffffffffffffffffffffffffffffff169050815f5f6101000a81548173ffffffffffffffffffffffffffffffffffffffff021916908373ffffffffffffffffffffffffffffffffffffffff1602179055508173ffffffffffffffffffffffffffffffffffffffff168173ffffffffffffffffffffffffffffffffffffffff167f8be0079c531659141344cd1fd0a4f28419497f9722a3daafe3b4186f6b6457e060405160405180910390a35050565b5f33905090565b8060025f8473ffffffffffffffffffffffffffffffffffffffff1673ffffffffffffffffffffffffffffffffffffffff1681526020019081526020015f2054101561216d576040517f08c379a0000000000000000000000000000000000000000000000000000000008152600401612164906130a2565b60405180910390fd5b8060025f8473ffffffffffffffffffffffffffffffffffffffff1673ffffffffffffffffffffffffffffffffffffffff1681526020019081526020015f205f82825403925050819055508060015f82825403925050819055505f73ffffffffffffffffffffffffffffffffffffffff168273ffffffffffffffffffffffffffffffffffffffff167fddf252ad1be2c89b69c2b068fc378daa952ba7f163c4a11628f55a4df523b3ef8360405161222391906124f9565b60405180910390a35050565b60405180608001604052805f73ffffffffffffffffffffffffffffffffffffffff1681526020015f73ffffffffffffffffffffffffffffffffffffffff1681526020015f81526020015f81525090565b6040518060a001604052805f73ffffffffffffffffffffffffffffffffffffffff1681526020015f73ffffffffffffffffffffffffffffffffffffffff1681526020015f81526020015f81526020015f81525090565b5f81519050919050565b5f82825260208201905092915050565b8281835e5f83830152505050565b5f601f19601f8301169050919050565b5f612317826122d5565b61232181856122df565b93506123318185602086016122ef565b61233a816122fd565b840191505092915050565b5f6020820190508181035f83015261235d818461230d565b905092915050565b5f5ffd5b5f73ffffffffffffffffffffffffffffffffffffffff82169050919050565b5f61239282612369565b9050919050565b6123a281612388565b81146123ac575f5ffd5b50565b5f813590506123bd81612399565b92915050565b5f819050919050565b6123d5816123c3565b81146123df575f5ffd5b50565b5f813590506123f0816123cc565b92915050565b5f5f6040838503121561240c5761240b612365565b5b5f612419858286016123af565b925050602061242a858286016123e2565b9150509250929050565b5f8115159050919050565b61244881612434565b82525050565b5f6020820190506124615f83018461243f565b92915050565b5f819050919050565b61247981612467565b8114612483575f5ffd5b50565b5f8135905061249481612470565b92915050565b5f5f5f606084860312156124b1576124b0612365565b5b5f6124be868287016123e2565b93505060206124cf868287016123af565b92505060406124e086828701612486565b9150509250925092565b6124f3816123c3565b82525050565b5f60208201905061250c5f8301846124ea565b92915050565b5f6020828403121561252757612526612365565b5b5f612534848285016123af565b91505092915050565b5f5f5f6060848603121561255457612553612365565b5b5f612561868287016123af565b9350506020612572868287016123af565b9250506040612583868287016123e2565b9150509250925092565b5f60ff82169050919050565b6125a28161258d565b82525050565b5f6020820190506125bb5f830184612599565b92915050565b5f81519050919050565b5f82825260208201905092915050565b5f819050602082019050919050565b6125f381612388565b82525050565b61260281612467565b82525050565b612611816123c3565b82525050565b608082015f82015161262b5f8501826125ea565b50602082015161263e60208501826125ea565b50604082015161265160408501826125f9565b5060608201516126646060850182612608565b50505050565b5f6126758383612617565b60808301905092915050565b5f602082019050919050565b5f612697826125c1565b6126a181856125cb565b93506126ac836125db565b805f5b838110156126dc5781516126c3888261266a565b97506126ce83612681565b9250506001810190506126af565b5085935050505092915050565b5f6020820190508181035f830152612701818461268d565b905092915050565b5f5f6040838503121561271f5761271e612365565b5b5f61272c858286016123af565b925050602061273d85828601612486565b9150509250929050565b5f81519050919050565b5f82825260208201905092915050565b5f819050602082019050919050565b60a082015f8201516127845f8501826125ea565b50602082015161279760208501826125ea565b5060408201516127aa6040850182612608565b5060608201516127bd60608501826125f9565b5060808201516127d06080850182612608565b50505050565b5f6127e18383612770565b60a08301905092915050565b5f602082019050919050565b5f61280382612747565b61280d8185612751565b935061281883612761565b805f5b8381101561284857815161282f88826127d6565b975061283a836127ed565b92505060018101905061281b565b5085935050505092915050565b5f6020820190508181035f83015261286d81846127f9565b905092915050565b61287e81612388565b82525050565b5f6020820190506128975f830184612875565b92915050565b5f602082840312156128b2576128b1612365565b5b5f6128bf848285016123e2565b91505092915050565b6128d181612467565b82525050565b5f6080820190506128ea5f830187612875565b6128f76020830186612875565b61290460408301856128c8565b61291160608301846124ea565b95945050505050565b5f60a08201905061292d5f830188612875565b61293a6020830187612875565b61294760408301866124ea565b61295460608301856128c8565b61296160808301846124ea565b9695505050505050565b5f5f6040838503121561298157612980612365565b5b5f61298e858286016123af565b925050602061299f858286016123af565b9150509250929050565b7f496e76616c69642061677265656d656e742049440000000000000000000000005f82015250565b5f6129dd6014836122df565b91506129e8826129a9565b602082019050919050565b5f6020820190508181035f830152612a0a816129d1565b9050919050565b7f4e487b71000000000000000000000000000000000000000000000000000000005f52603260045260245ffd5b7f4e6f742070617274206f66207468652061677265656d656e74000000000000005f82015250565b5f612a726019836122df565b9150612a7d82612a3e565b602082019050919050565b5f6020820190508181035f830152612a9f81612a66565b9050919050565b7f5265706f72746564207061727479206e6f7420696e2061677265656d656e74005f82015250565b5f612ada601f836122df565b9150612ae582612aa6565b602082019050919050565b5f6020820190508181035f830152612b0781612ace565b9050919050565b7f43616e6e6f74207265706f727420796f757273656c66000000000000000000005f82015250565b5f612b426016836122df565b9150612b4d82612b0e565b602082019050919050565b5f6020820190508181035f830152612b6f81612b36565b9050919050565b7f4e487b71000000000000000000000000000000000000000000000000000000005f52601160045260245ffd5b5f612bad826123c3565b9150612bb8836123c3565b9250828203905081811115612bd057612bcf612b76565b5b92915050565b5f606082019050612be95f8301866124ea565b612bf660208301856128c8565b612c0360408301846124ea565b949350505050565b7f4e6f7420616c6c6f7765640000000000000000000000000000000000000000005f82015250565b5f612c3f600b836122df565b9150612c4a82612c0b565b602082019050919050565b5f6020820190508181035f830152612c6c81612c33565b9050919050565b7f4e487b71000000000000000000000000000000000000000000000000000000005f52604160045260245ffd5b7f416c7265616479207265676973746572656400000000000000000000000000005f82015250565b5f612cd46012836122df565b9150612cdf82612ca0565b602082019050919050565b5f6020820190508181035f830152612d0181612cc8565b9050919050565b7f53656e646572206e6f74207265676973746572656400000000000000000000005f82015250565b5f612d3c6015836122df565b9150612d4782612d08565b602082019050919050565b5f6020820190508181035f830152612d6981612d30565b9050919050565b7f4f74686572207061727479206e6f7420726567697374657265640000000000005f82015250565b5f612da4601a836122df565b9150612daf82612d70565b602082019050919050565b5f6020820190508181035f830152612dd181612d98565b9050919050565b7f43616e6e6f7420616772656520776974682073656c66000000000000000000005f82015250565b5f612e0c6016836122df565b9150612e1782612dd8565b602082019050919050565b5f6020820190508181035f830152612e3981612e00565b9050919050565b5f612e4a826123c3565b9150612e55836123c3565b9250828202612e63816123c3565b91508282048414831517612e7a57612e79612b76565b5b5092915050565b7f4e487b71000000000000000000000000000000000000000000000000000000005f52601260045260245ffd5b5f612eb8826123c3565b9150612ec3836123c3565b925082612ed357612ed2612e81565b5b828204905092915050565b5f60a082019050612ef15f8301886124ea565b612efe60208301876124ea565b612f0b60408301866124ea565b612f1860608301856128c8565b612f2560808301846124ea565b9695505050505050565b7f496e73756666696369656e742062616c616e63650000000000000000000000005f82015250565b5f612f636014836122df565b9150612f6e82612f2f565b602082019050919050565b5f6020820190508181035f830152612f9081612f57565b9050919050565b5f612fa1826123c3565b9150612fac836123c3565b9250828201905080821115612fc457612fc3612b76565b5b92915050565b7f496e73756666696369656e7420746f6b656e7320666f722076657269666963615f8201527f74696f6e20666565000000000000000000000000000000000000000000000000602082015250565b5f6130246028836122df565b915061302f82612fca565b604082019050919050565b5f6020820190508181035f83015261305181613018565b9050919050565b7f4e6f7420656e6f75676820746f206275726e00000000000000000000000000005f82015250565b5f61308c6012836122df565b915061309782613058565b602082019050919050565b5f6020820190508181035f8301526130b981613080565b905091905056fea2646970667358221220a9499858560763873d1921b7263e4807cc1fa16ffd12592d29385b51503e794c64736f6c634300081c0033",
  "linkReferences": {},
  "deployedLinkReferences": {},
  "immutableReferences": {},
  "inputSourceName": "project/contracts/AgreementLedger.sol",
  "buildInfoId": "solc-0_8_28-f562dbe64d7ba2d7d105f78f741adea62905ecd2"
}